:020000040000FA
:040000001DEF05F0FB
:10080000005375736372696265746521003D44002D
:0108100000E7
:100812008350F00B836EF00E9516959C959A9598E1
:100822008C9C8C9A8C98620E026E660EE82EFED715
:10083200022EFCD7300ECBEC04F0210E026E760EA7
:10084200E82EFED7022EFCD700D0300ECBEC04F0FF
:10085200A60EE82EFED700D0320ECBEC04F0A60E88
:10086200E82EFED700D0A60EE82EFED700D0280E26
:10087200CBEC04F0A60EE82EFED700D0080ECBEC8F
:1008820004F0A60EE82EFED700D00F0ECBEC04F03B
:10089200A60EE82EFED700D0010ECBEC04F0A60E79
:1008A200E82EFED700D0040ECBEC04F0A60EE82E04
:1008B200FED700D0A60EE82EFED700D0060ECBEC57
:1008C20004F00C0ECBEC04F0120009EC04F0000E64
:1008D200036E000E026E000E056E000E046E0CEC2E
:1008E20005F0010E026E080E036EF3EC04F0030E27
:1008F200076E8A0E066E560EE82EFED7062EFCD71F
:10090200072EFAD7000E036E010E026E000E056E60
:10091200050E046E0CEC05F00D0E026E080E036E51
:10092200F3EC04F0030E076E8A0E066E560EE82EE6
:10093200FED7062EFCD7072EFAD7C9D7016EA60E10
:10094200E82EFED700D0F00E8316F00E9516013871
:100952000F0B0F0B8310836E8C9C8C8A080EE82E73
:10096200FED700F08C88080EE82EFED700F08C9897
:10097200F00E831601500F0B8312080EE82EFED7DD
:1009820000F08C88080EE82EFED700F08C980F0E2F
:1009920095121200016EF00E8316F00E95160138B4
:1009A2000F0B0F0B8310836E8C9C8C9A080EE82E13
:1009B200FED700F08C88080EE82EFED700F08C9847
:1009C200F00E831601500F0B8312080EE82EFED78D
:1009D20000F08C88080EE82EFED700F08C980F0EDF
:1009E200951212000ED0A60EE82EFED700D002C03D
:1009F200F6FF03C0F7FF0800F5509FEC04F0024A2F
:100A0200032A02C0F6FF03C0F7FF0800F5500009F1
:100A1200D8B41200E8D703BE0AD0035003E102049F
:100A2200D8A005D00450C00FCBEC04F01200045043
:100A3200800FCBEC04F01200000EF86E080EF76E79
:060A4200000166EF04F064
:020000040020DA
:08000000FFFFFFFFFFFFFFFF00
:020000040030CA
:0E000000000C191EFF8381FF0FC00FE00F40A0
:00000001FF
