:0400000081EF3FF05D
:107ECC003F0006005B004F0066006D007D00070060
:107EDC007F006700C180C182C184C186000E896E9B
:107EEC00000E8C6E000E926E000E956E9380938237
:107EFC009388F19E1200CC0EF66E7E0EF76E000E7D
:107F0C00F86E00EE01F010EE14F00900F5CFEEFF64
:107F1C00E550E150FAE1166A156A000196EF3FF060
:107F2C0070EC3FF081B82AD089808992000E166ED1
:107F3C00000E156E16BE06D0165057E10A0E155CD3
:107F4C00D8B053D0D8901534D96E1634DA6E010EE1
:107F5C00D926000EDA22DF50836E0D0E186EAF0E8E
:107F6C00176EB60EE82EFED7172EFCD7182EFAD7A2
:107F7C0000D0154A162ADED789903AD081B023D08A
:107F8C0089908982000E166E090E156E16BE2DD0C4
:107F9C00D8901534D96E1634DA6E010ED926000E2F
:107FAC00DA22DF50836E0D0E186EAF0E176EB60E02
:107FBC00E82EFED7172EFCD7182EFAD700D01506B0
:107FCC00D8A01606E3D781B2ADD78980898209C0C3
:107FDC0083FF0D0E186EAF0E176EB60EE82EFED781
:107FEC00172EFCD7182EFAD700D0000E836EC4D7EC
:047FFC00899298D7F7
:020000040020DA
:08000000FFFFFFFFFFFFFFFF00
:020000040030CA
:0E000000000C181EFF8381FF0FC00FE00F40A1
:00000001FF
