:040000005AEF3DF086
:107A93000100000001C180C182C184C186000E8C37
:107AA3006E000E8A6E93809382F19E000E956E1285
:107AB30000930EF66E7A0EF76E000EF86E00EE016E
:107AC300F010EE05F00900F5CFEEFFE550E150FAB6
:107AD300E1000EF86E00016FEF3DF04CEC3DF081DC
:107AE300B01CD00D0E086EFC0EE82EFED7082EFC3F
:107AF300D70528056E050E0518D8A40FD0010E056D
:107B03006E0CD067EC3FF0EBD79DEC3DF0E8D7CEA1
:107B1300EC3EF0E5D735EC3EF0E2D70550010AD84C
:107B2300B4F0D7030AD8B4F0D7010AD8B4F0D70712
:107B33000AD8B4F0D7D4D78C680104021003100418
:107B430010D8A419D0030E076E8A0E066E560EE8DF
:107B53002EFED7062EFCD7072EFAD7000E8C6E0307
:107B63000E076E8A0E066E560EE82EFED7062EFC04
:107B7300D7072EFAD753D0020E01180210031004B0
:107B830010D8A419D0020E076E450E066EAA0EE891
:107B93002EFED7062EFCD7072EFAD7000E8C6E02C8
:107BA3000E076E450E066EAA0EE82EFED7062EFCB5
:107BB300D7072EFAD733D0030E011802100310048F
:107BC30010D8A413D0A30E066E550EE82EFED706CA
:107BD3002EFCD700F0000E8C6EA30E066E550EE839
:107BE3002EFED7062EFCD700F019D0040E01180282
:107BF3001003100410D8A412D0410E066EEE0EE846
:107C03002EFED7062EFCD700D0000E8C6E410E063A
:107C13006EEE0EE82EFED7062EFCD700D081B212F0
:107C2300000D0E066EFC0EE82EFED7062EFCD701C5
:107C33000E0124016E000E0220026E000E032003CB
:107C43006E000E0420046E050E01180210031004CA
:107C530010D8A41200010E016E000E026E000E0376
:107C63006E000E046E1200990E8C6E010402100356
:107C7300100410D8A419D0030E076E8A0E066E5690
:107C83000EE82EFED7062EFCD7072EFAD7000E8C51
:107C93006E030E076E8A0E066E560EE82EFED7068C
:107CA3002EFCD7072EFAD753D0020E011802100369
:107CB300100410D8A419D0020E076E450E066EAA42
:107CC3000EE82EFED7062EFCD7072EFAD7000E8C11
:107CD3006E020E076E450E066EAA0EE82EFED7063E
:107CE3002EFCD7072EFAD733D0030E011802100348
:107CF300100410D8A413D0A30E066E550EE82EFE62
:107D0300D7062EFCD700F0000E8C6EA30E066E5520
:107D13000EE82EFED7062EFCD700F019D0040E0174
:107D230018021003100410D8A412D0410E066EEEF0
:107D33000EE82EFED7062EFCD700D0000E8C6E4127
:107D43000E066EEE0EE82EFED7062EFCD700D0816F
:107D5300B212000D0E066EFC0EE82EFED7062EFCA8
:107D6300D7010E0124016E000E0220026E000E03E5
:107D730020036E000E0420046E050E01180210038A
:107D8300100410D8A41200010E016E000E026E0042
:107D93000E036E000E046E1200660E8C6E0104025A
:107DA3001003100410D8A419D0030E076E8A0E0610
:107DB3006E560EE82EFED7062EFCD7072EFAD700F6
:107DC3000E8C6E030E076E8A0E066E560EE82EFE9E
:107DD300D7062EFCD7072EFAD753D0020E0118026E
:107DE3001003100410D8A419D0020E076E450E0616
:107DF3006EAA0EE82EFED7062EFCD7072EFAD70062
:107E03000E8C6E020E076E450E066EAA0EE82EFE4F
:107E1300D7062EFCD7072EFAD733D0030E0118024C
:107E23001003100410D8A413D0A30E066E550EE849
:107E33002EFED7062EFCD700F0000E8C6EA30E0686
:107E43006E550EE82EFED7062EFCD700F019D0048F
:107E53000E0118021003100410D8A412D0410E060C
:107E63006EEE0EE82EFED7062EFCD700D0000E8C49
:107E73006E410E066EEE0EE82EFED7062EFCD700E0
:107E8300D081B212000D0E066EFC0EE82EFED70650
:107E93002EFCD7010E0124016E000E0220026E009B
:107EA3000E0320036E000E0420046E050E0118025B
:107EB3001003100410D8A41200010E016E000E026C
:107EC3006E000E036E000E046E1200AA0E8C6E017D
:107ED30004021003100410D8A419D0030E076E8AED
:107EE3000E066E560EE82EFED7062EFCD7072EFA88
:107EF300D7000E8C6E030E076E8A0E066E560EE8C2
:107F03002EFED7062EFCD7072EFAD753D0020E012A
:107F130018021003100410D8A419D0020E076E45DE
:107F23000E066EAA0EE82EFED7062EFCD7072EFAF3
:107F3300D7000E8C6E020E076E450E066EAA0EE873
:107F43002EFED7062EFCD7072EFAD733D0030E0109
:107F530018021003100410D8A413D0A30E066E55F4
:107F63000EE82EFED7062EFCD700F0000E8C6EA373
:107F73000E066E550EE82EFED7062EFCD700F0191E
:107F8300D0040E0118021003100410D8A412D0411B
:107F93000E066EEE0EE82EFED7062EFCD700D0009E
:107FA3000E8C6E410E066EEE0EE82EFED7062EFCEC
:107FB300D700D081B212000D0E066EFC0EE82EFE25
:107FC300D7062EFCD7010E0124016E000E022002FB
:107FD3006E000E0320036E000E0420046E050E01D6
:107FE30018021003100410D8A41200010E016E0031
:0D7FF3000E026E000E036E000E046E1200F2
:020000040020DA
:08000000FFFFFFFFFFFFFFFF00
:020000040030CA
:0E000000000C181EFF8381FF0FC00FE00F40A1
:00000001FF
