:04000000CBEF2FF023
:105F2200938093829384F19E010E926E1200620E10
:105F3200016E660EE82EFED7012EFCD7120000F08D
:105F420000F000F000F000F000F000F000F000F0CF
:105F520000F000F000F01200280E89EC32F04EEC56
:105F620030F00009D8A4FBD7060E6BEC30F00C0E13
:105F72006BEC30F01200036E000E026E3A0E0360FC
:105F820005D02F0E036402D0010E026E02C001F092
:105F92000130120000EE77F0140EEE6AE806FDE121
:105FA200536A526A516A506A4F6A000EF86E0001D3
:105FB200C9EF39F003BE0AD0035003E10204D8A0AE
:105FC20005D00450C00F6BEC30F012000450800F6B
:105FD2006BEC30F01200C150F00B0C09C16ECF0E09
:105FE200C116000EC26EC050C70B1809C06EC05059
:105FF200F80B0509C06EC08E120009C001F00AC07C
:1060020002F0036A8E0E046E000E056EDBEC32F0B7
:1060120001C009F002C00AF003C00BF012000150E7
:1060220002100310D8B406D0000E011A000E021A94
:10603200800E031A01C001F002C002F003C003F097
:1060420012000F501102F3CF13F0F4CF14F00F50DF
:106052001202F350142610501102F350142613C0EA
:106062000FF014C010F01200036E0D0E036405D081
:10607200000E026E000E016E1200000EC26E03448C
:10608200E846FC0BC26EC280C282C2B2FED7C29088
:10609200C3CF01F0C4CF02F012008C8C8C9AA0EC1A
:1060A2002FF08C88A0EC2FF083A60AD08C98A0EC5D
:1060B2002FF08C88A0EC2FF08C988C9C010E120093
:1060C2008C98A0EC2FF08C88A0EC2FF08C988C9CF4
:1060D200000E1200016EF00E9516F00E83160138B6
:1060E2000F0B0F0B83128C9C8C9AA0EC2FF08C88D8
:1060F200A0EC2FF08C98F00E831601500F0B831238
:10610200A0EC2FF08C88A0EC2FF08C980F0E95123B
:1061120012003D503E103F10D8B406D0000E3D1A7A
:10612200000E3E1A800E3F1A3AC02EF03BC02FF0EE
:106132003CC030F03DC031F03EC032F03FC033F0E1
:10614200C6EC35F02EC03AF02FC03BF030C03CF028
:106152001200016E4EEC30F00009D8A4FBD7F00E0D
:106162009516F00E831601380F0B0F0B83128C8AD3
:106172008C9CA0EC2FF08C88A0EC2FF08C98F00E69
:10618200831601500F0B8312A0EC2FF08C88A0EC29
:106192002FF08C980F0E95121200046EF00E9516C9
:1061A200F00E83160450016E026A018E040E036E15
:1061B200023402320132032EFBD701500F0B83123D
:1061C2008C9C8C9AA0EC2FF08C88A0EC2FF08C98F1
:1061D200F00E831604500F0B8312A0EC2FF08C8864
:1061E200A0EC2FF08C980F0E9512120019D04EECE5
:1061F20030F00009D8A4FBD702C0F6FF03C0F7FFB6
:10620200F86A070EF76403D00800F55005D0F6CF00
:10621200E9FFF7CFEAFFEF50AAEC30F0024A032A77
:1062220002C0F6FF03C0F7FFF86A070EF76403D057
:106232000800F55005D0F6CFE9FFF7CFEAFFEF509F
:106242000009D8B41200D3D78E0E116E06D0D890A2
:106252000C320B320A320932112A000E09140D6E69
:10626200000E0A140E6E000E0B140F6EFF0E0C14AD
:10627200106E0D500E100F101010D8A4E8D709C0E0
:1062820001F00AC002F00BC003F011C004F0000ECE
:10629200056EDBEC32F001C009F002C00AF003C067
:1062A2000BF012000550061007100810D8B424D0C5
:1062B200010E096E06D0D890053606360736083626
:1062C200092A08AEF8D70550015C0650025807505B
:1062D200035808500458D8A008D00550015E065053
:1062E200025A0750035A0850045AD890083207320B
:1062F20006320532092EE7D701C001F002C002F0D2
:1063020003C003F004C004F01200000E066E02AED9
:1063120006D0016C021ED8B0022A010E066E04AE2F
:1063220004D0036C041ED8B0042A03500410D8B45D
:1063320018D0010E056E04D0D89003360436052A13
:1063420004AEFAD70350015C04500258D8A004D01E
:106352000350015E0450025AD89004320332052ED3
:10636200F1D70650D8B404D0016C021ED8B0022A6C
:1063720001C001F002C002F01200000E096E000E10
:106382000A6E000E0B6E000E0C6E05500610071002
:106392000810D8B42AD0010E0D6E06D0D89005365A
:1063A2000636073608360D2A08AEF8D7D8900936D1
:1063B2000A360B360C360550015C0650025807505F
:1063C200035808500458D8A009D00550015E065061
:1063D200025A0750035A0850045A0980D8900832CA
:1063E2000732063205320D2EE1D709C001F00AC08C
:1063F20002F00BC003F00CC004F01200000E0C6E91
:106402000AAE06D0096C0A1ED8B00A2A010E0C6E1A
:1064120008AE06D0076C081ED8B0082A010E0C1A66
:10642200000E0E6E000E0D6E09500A10D8B41CD06C
:10643200010E0B6E04D0D89009360A360B2A0AAE2A
:10644200FAD7D8900D360E360950075C0A50085814
:10645200D8A005D00950075E0A50085A0D80D8907E
:106462000A3209320B2EEDD70C50D8B404D00D6C81
:106472000E1ED8B00E2A0DC007F00EC008F0120092
:1064820003AE16D001C007F002C008F003C009F045
:10649200071E081E091E072A000E08220922000EE6
:1064A2000724016E000E0820026E800E0920036E82
:1064B20006AE16D004C007F005C008F006C009F009
:1064C200071E081E091E072A000E08220922000EB6
:1064D2000724046E000E0820056E800E0920066E49
:1064E200000E011A000E021A800E031A000E041A80
:1064F200000E051A800E061A0450015C055002585F
:1065020006500358D8B002D0D8901200D88012009A
:10651200056EF00E8316F00E9516959C959A959839
:106522008C9C8C9A8C9898EC2FF0300E6BEC30F09F
:1065320000D000D000F0300E6BEC30F000D000D074
:1065420000F0320E6BEC30F04EEC30F00009D8A4C3
:10655200FBD74EEC30F00009D8A4FBD705506BEC0A
:1065620030F04EEC30F00009D8A4FBD7080E6BECEB
:1065720030F04EEC30F00009D8A4FBD70F0E6BECD4
:1065820030F04EEC30F00009D8A4FBD7010E6BECD2
:1065920030F04EEC30F00009D8A4FBD7040E6BECBF
:1065A20030F04EEC30F00009D8A4FBD7800ECEECD0
:1065B20030F012000450D8B405D00150021003107C
:1065C200D8A40CD0000E016E000E026E000E036EF7
:1065D2001200042AD890033202320132000E011452
:1065E200066E000E0214076EFE0E0314086E0650AD
:1065F20007100810D8B40CD0ECD7042A010E0126DB
:10660200000E0222000E0322D8900332023201321F
:10661200000E0114066E000E0214076EFF0E031424
:10662200086E065007100810D8B406D0E6D7040644
:10663200D89001360236033602BE03D0020E046041
:10664200F6D704A0029ED8900432045003120550DB
:10665200D8A4038E01C001F002C002F003C003F00F
:10666200120026C02AF02B6A2C6A25342A3601E34E
:106672002B802A50316E3150D8A407D0000E246EE0
:10668200000E256E000E266E120029C02AF02B6A1B
:106692002C6A28342A3601E32B802A50326E32507B
:1066A200D8A407D0000E246E000E256E000E266EB2
:1066B2001200000E2E6E000E2F6E000E306E325043
:1066C200890F315E26C032F02950321A800E3216FE
:1066D200258EFF0E2416FF0E2516000E2616288E76
:1066E200FF0E2716FF0E2816000E2916180E2D6E05
:1066F200D8902E362F3630362750245C2850255815
:1067020029502658D8A007D02750245E2850255A51
:106712002950265A2E80D8902436253626362D2EFC
:10672200E7D72EC001F02FC002F030C003F031C015
:1067320004F032C005F0DBEC32F001C024F002C0FC
:1067420025F003C026F012002DC02FF0306A316A06
:106752002C342F3601E330802F50396E3950D8A4B3
:1067620009D0000E2B6E000E2C6E000E2D6E000E48
:106772002E6E1200170E2F6E2BC030F02CC031F08F
:106782002DC032F02F28336E04D0D89032323132FD
:106792003032332EFAD73050346E2C8EFF0E2B1639
:1067A200FF0E2C16000E2D162B50356E2C50366E09
:1067B2002D50376E386A8E0E395E39AE16D039508A
:1067C200800A8F0FD8B009D0000E2B6E000E2C6EEF
:1067D200000E2D6E000E2E6E1200D8903832373217
:1067E20036323532393EF9D715D0170E39640FD00B
:1067F200000E2B6E000E2C6E000E2D6E000E2E6EF5
:106802001200D89035363636373638363906395092
:10681200D8A4F7D73450D8B408D0381E371E361E45
:10682200356C000E36223722382235C02BF036C0A6
:106832002CF037C02DF038C02EF0120017C01BF01C
:106842001C6A1D6A16341B3601E31C801B501E6E27
:106852001E50D8A407D0000E156E000E166E000E44
:10686200176E12001AC01BF01C6A1D6A19341B36FF
:1068720001E31C801B50236E2350D8A407D0000EC6
:10688200156E000E166E000E176E120023507B0F4F
:106892001E2617C023F01A50231A800E2316168EB6
:1068A200198EFF0E1816FF0E1916000E1A16000E7C
:1068B2001F6E000E206E000E216E070E226E15A0B6
:1068C20006D018501F26195020221A502122D89083
:1068D200173216321532D890183619361A36222E39
:1068E200EED7090E226E15A006D018501F26195099
:1068F20020221A502122D890173216321532D890FF
:10690200213220321F32222EEED71FC001F020C0CA
:1069120002F021C003F01EC004F023C005F0DBEC3E
:1069220032F001C015F002C016F003C017F01200D9
:10693200033404340C6E0C50D8A409D0000E016E3E
:10694200000E026E000E036E000E046E120006347C
:1069520007340B6E0B50D8A409D0000E016E000E46
:10696200026E000E036E000E046E1200038EFF0E06
:106972000116FF0E0216FF0E0316000E0416068EF7
:10698200FF0E0416FF0E0516FF0E0616000E071662
:10699200000E076E000E086E000E096E000E0A6EE3
:1069A2007F0E0C5E0B50A00F0C5E200E0B6ED8906B
:1069B2000736083609360A360450015C055002587B
:1069C2000650035807500458D8A009D00450015E5D
:1069D2000550025A0650035A0750045A0780D890AD
:1069E20001360236033604360B2EE1D70CAE16D032
:1069F2000C50800A9F0FD8B009D0000E016E000E15
:106A0200026E000E036E000E046E1200D8900A325F
:106A12000932083207320C3EF9D715D01F0E0C642A
:106A22000FD0000E016E000E026E000E036E000EFD
:106A3200046E1200D8900736083609360A360C065C
:106A42000C50D8A4F7D707C001F008C002F009C063
:106A520003F00AC004F0120003C007F0086A096AD2
:106A62000234073601E3088007500F6E0F50D8A496
:106A720009D0000E016E000E026E000E036E000EB3
:106A8200046E120006C007F0086A096A0534073668
:106A920001E3088007500E6E0E50D8A409D0000EF4
:106AA200016E000E026E000E036E000E046E1200E6
:106AB200028EFF0E0116FF0E0216000E0316058E41
:106AC200FF0E0416FF0E0516000E0616000E0A6EC5
:106AD200000E0B6E000E0C6E000E0D6E7F0E0F5E22
:106AE2000E50980F0F5E180E0E6ED8900A360B36A7
:106AF2000C360D360450015C0550025806500358FE
:106B0200D8A007D00450015E0550025A0650035A1D
:106B12000A80D8900136023603360E2EE6D70FAE23
:106B220016D00F50800A970FD8B009D0000E016E10
:106B3200000E026E000E036E000E046E1200D8905C
:106B42000D320C320B320A320F3EF9D715D0170E26
:106B52000F640FD0000E016E000E026E000E036E67
:106B6200000E046E1200D8900A360B360C360D3623
:106B72000F060F50D8A4F7D70AC001F00BC002F0DD
:106B82000CC003F00DC004F0120030C034F0356ABE
:106B9200366A2F34343601E335803450396E33C0CF
:106BA20034F0356A366A3234343601E33580345093
:106BB200386E3950D8B40BD03850395CD8B00ED0BA
:106BC200395000083824346E180E346407D031C0AE
:106BD2002EF032C02FF033C030F012003850D8B44B
:106BE2000BD03950385CD8B00ED038500008392458
:106BF200346E180E346407D02EC02EF02FC02FF042
:106C020030C030F01200060E376E30BE378E33BE03
:106C1200378C2F8EFF0E2E16FF0E2F16000E3016FB
:106C2200328EFF0E3116FF0E3216000E331638501A
:106C3200395CD8B01BD0D89031363236333638066C
:106C420039503818D8B40DD0370637C034F0070E93
:106C52003416D8B406D0EFD7D89030322F322E3235
:106C6200392A38503918D8B41FD0F6D73950385C81
:106C7200D8B01AD0D8902E362F3630363906395041
:106C82003818D8B40DD0370637C034F0070E341692
:106C9200D8B406D0EFD7D890333232323132382AD4
:106CA20038503918D8A4F7D737AE0CD0FF0E2E1AA9
:106CB200FF0E2F1AFF0E301A010E2E26000E2F2263
:106CC200000E302237AC0CD0FF0E311AFF0E321AF2
:106CD200FF0E331A010E3126000E3222000E33222D
:106CE200000E376E2E5031262F5032223050332272
:106CF20033AE0ED0FF0E311AFF0E321AFF0E331AC8
:106D0200010E3126000E3222000E3322010E376EA2
:106D120031C001F032C002F033C003F039C004F0D8
:106D220037C005F0DBEC32F001C02EF002C02FF0CC
:106D320003C030F012002D6E6D0E2D649FD0000E38
:106D4200126E030E116E000E0A6E0A0E096E000E0E
:106D5200046E640E036E2DC001F0026A86EC31F0FF
:106D620001C007F002C008F0FFEC31F0090E072461
:106D72000F6E000E0820106E22EC30F0500E0F2421
:106D8200F66E7F0E1020F76E0900F5CF18F009009D
:106D9200F5CF19F00A00F5CF1AF0000E0A6E640E54
:106DA200096E2DC007F0086AFFEC31F0120E0724BD
:106DB2000F6E000E0820106E000E126E030E116E82
:106DC20022EC30F0500E0F24F66E7F0E1020F76E7C
:106DD2000900F5CF15F00900F5CF16F00A00F5CF3E
:106DE20017F01FEC34F015C02AF016C02BF017C0B4
:106DF2002CF0000E126E030E116E000E046E0A0EBF
:106E0200036E2DC001F0026A86EC31F001C00FF072
:106E120002C010F022EC30F0500E0F24F66E7F0EFE
:106E22001020F76E0900F5CF18F00900F5CF19F020
:106E32000A00F5CF1AF02AC015F02BC016F02CC0AC
:106E420017F01FEC34F015C027F016C028F017C059
:106E520029F027C015F028C016F029C017F0000E3F
:106E6200186E000E196E3F0E1A6E1FEC34F015C02C
:106E720024F016C025F017C026F012000A0E2D6469
:106E820063D0000E126E030E116E000E046E0A0E17
:106E9200036E2DC001F0026A86EC31F001C00FF0E2
:106EA20002C010F022EC30F0500E0F24F66E7F0E6E
:106EB2001020F76E0900F5CF18F00900F5CF19F090
:106EC2000A00F5CF1AF0000E0A6E0A0E096E2DC0E6
:106ED20007F0086AFFEC31F0090E07240F6E000E6E
:106EE2000820106E000E126E030E116E22EC30F0AE
:106EF200500E0F24F66E7F0E1020F76E0900F5CFAC
:106F020015F00900F5CF16F00A00F5CF17F01FECC7
:106F120034F015C02AF016C02BF017C02CF02AC08E
:106F220015F02BC016F02CC017F0000E186E000ED4
:106F3200196E3F0E1A6E1FEC34F015C024F016C005
:106F420025F017C026F012002D50030D500EF32429
:106F5200F66E7F0EF420F76E0900F5CF15F00900EA
:106F6200F5CF16F00A00F5CF17F0000E186E000EDE
:106F7200196E3F0E1A6E1FEC34F015C024F016C0C5
:106F820025F017C026F012002A6E2AAE01D12A6C13
:106F92002A50800A120FD8A091D0000E126E030E52
:106FA200116E000E0A6E0A0E096E000E046E640E59
:106FB200036E2A50016E026A01BE020686EC31F0AF
:106FC20001C007F002C008F0FFEC31F0090E0724FF
:106FD2000F6E000E0820106E22EC30F0500E0F24BF
:106FE200F66E7F0E1020F76E0900F5CF18F009003B
:106FF200F5CF19F00A00F5CF1AF0000E0A6E640EF2
:10700200096E2A50076E086A07BE0806FFEC31F0C7
:10701200120E07240F6E000E0820106E000E126E64
:10702200030E116E22EC30F0500E0F24F66E7F0E1E
:107032001020F76E0900F5CF15F00900F5CF16F014
:107042000A00F5CF17F01FEC34F015C027F016C078
:1070520028F017C029F027C015F028C016F029C063
:1070620017F0000E126E030E116E000E046E0A0E61
:10707200036E2A50016E026A01BE020686EC31F0EE
:1070820001C00FF002C010F022EC30F0500E0F24BD
:10709200F66E7F0E1020F76E0900F5CF18F009008A
:1070A200F5CF19F00A00F5CF1AF01FEC34F015C035
:1070B20024F016C025F017C026F012002A50800ACC
:1070C200750FD8A053D0000E0A6E0A0E096E2A5010
:1070D200076E086A07BE0806FFEC31F0090E0724A6
:1070E2000F6E000E0820106E000E126E030E116E4F
:1070F20022EC30F0500E0F24F66E7F0E1020F76E49
:107102000900F5CF15F00900F5CF16F00A00F5CF0A
:1071120017F0000E126E030E116E000E046E0A0EB0
:10712200036E2A50016E026A01BE020686EC31F03D
:1071320001C00FF002C010F022EC30F0500E0F240C
:10714200F66E7F0E1020F76E0900F5CF18F00900D9
:10715200F5CF19F00A00F5CF1AF01FEC34F015C084
:1071620024F016C025F017C026F012002A50030D95
:10717200500EF324F66E7F0EF420F76E0900F5CF61
:1071820024F00900F5CF25F00A00F5CF26F0120011
:107192002A50800A120FD8A091D0000E126E030E50
:1071A200116E000E0A6E0A0E096E000E046E640E57
:1071B200036E2A50016E026A01BE020686EC31F0AD
:1071C20001C007F002C008F0FFEC31F0090E0724FD
:1071D2000F6E000E0820106E22EC30F0290E0F24E4
:1071E200F66E7F0E1020F76E0900F5CF18F0090039
:1071F200F5CF19F00A00F5CF1AF0000E0A6E640EF0
:10720200096E2A50076E086A07BE0806FFEC31F0C5
:10721200120E07240F6E000E0820106E000E126E62
:10722200030E116E22EC30F0290E0F24F66E7F0E43
:107232001020F76E0900F5CF15F00900F5CF16F012
:107242000A00F5CF17F01FEC34F015C027F016C076
:1072520028F017C029F027C015F028C016F029C061
:1072620017F0000E126E030E116E000E046E0A0E5F
:10727200036E2A50016E026A01BE020686EC31F0EC
:1072820001C00FF002C010F022EC30F0290E0F24E2
:10729200F66E7F0E1020F76E0900F5CF18F0090088
:1072A200F5CF19F00A00F5CF1AF01FEC34F015C033
:1072B20024F016C025F017C026F012002A50800ACA
:1072C200750FD8A053D0000E0A6E0A0E096E2A500E
:1072D200076E086A07BE0806FFEC31F0090E0724A4
:1072E2000F6E000E0820106E000E126E030E116E4D
:1072F20022EC30F0290E0F24F66E7F0E1020F76E6E
:107302000900F5CF15F00900F5CF16F00A00F5CF08
:1073120017F0000E126E030E116E000E046E0A0EAE
:10732200036E2A50016E026A01BE020686EC31F03B
:1073320001C00FF002C010F022EC30F0290E0F2431
:10734200F66E7F0E1020F76E0900F5CF18F00900D7
:10735200F5CF19F00A00F5CF1AF01FEC34F015C082
:1073620024F016C025F017C026F012002A50030D93
:10737200290EF324F66E7F0EF420F76E0900F5CF86
:1073820024F00900F5CF25F00A00F5CF26F012000F
:10739200ADEC2FF0ECEC2FF091EC2FF0000E036E21
:1073A200000E026E000E056E000E046EDBEC2FF076
:1073B200B70E026E7F0E036EF7EC30F0030E4E6EC8
:1073C2008A0E4D6E560EE82EFED74D2EFCD74E2E4F
:1073D200FAD7000E036E010E026E000E056E000E4D
:1073E200046EDBEC2FF0770E026E7F0E036EF7EC6D
:1073F20030F00D0E4E6EAF0E4D6EB60EE82EFED76D
:107402004D2EFCD74E2EFAD700D0010E6BEC30F089
:10741200000E036E000E026E000E056E000E046E6C
:10742200DBEC2FF0C70E026E7F0E036EF7EC30F02E
:107432000D0E4E6EAF0E4D6EB60EE82EFED74D2ED1
:10744200FCD74E2EFAD700D0000E036E010E026E4C
:10745200000E056E000E046EDBEC2FF0D40E026EF1
:107462007F0E036EF7EC30F00D0E4E6EAF0E4D6ECA
:10747200B60EE82EFED74D2EFCD74E2EFAD700D0F0
:10748200010E6BEC30F0000E036E000E026E000E69
:10749200056E000E046EDBEC2FF0E10E026E7F0E25
:1074A200036EF7EC30F00D0E4E6EAF0E4D6EB60E53
:1074B200E82EFED74D2EFCD74E2EFAD700D081B043
:1074C20088D0000E036E000E026E000E056E000ED6
:1074D200046EDBEC2FF0870E026E7F0E036EF7EC6C
:1074E20030F0030E4E6E8A0E4D6E560EE82EFED70B
:1074F2004D2EFCD74E2EFAD7000E036E010E026EF1
:10750200000E056E000E046EDBEC2FF0EE0E026E26
:107512007F0E036EF7EC30F0000E35EC30F001C058
:1075220052F002C053F0000E186EA00E196E400EFB
:107532001A6E52C009F053C00AF0FEEC2FF009C0D7
:1075420015F00AC016F00BC017F01FEC34F015C08E
:1075520024F016C025F017C026F0C00E276E7F0E4D
:10756200286E440E296E32EC33F024C04FF025C051
:1075720050F026C051F0000E036E010E026E000E96
:10758200056E0C0E046EDBEC2FF0770E406E000ED3
:10759200416EFA0E426E7F0E436E4FC044F050C0F1
:1075A20045F051C046F0FCEC3BF0770E026E000E47
:1075B200036EF7EC30F0030E4E6E8A0E4D6E560ED1
:1075C200E82EFED74D2EFCD74E2EFAD781B020D70B
:1075D20078D781B288D0000E036E000E026E000EC4
:1075E200056E000E046EDBEC2FF0970E026E7F0E1E
:1075F200036EF7EC30F0030E4E6E8A0E4D6E560E91
:10760200E82EFED74D2EFCD74E2EFAD7000E036E73
:10761200010E026E000E056E000E046EDBEC2FF002
:10762200EE0E026E7F0E036EF7EC30F0010E35ECBB
:1076320030F001C052F002C053F0000E186EA00EDE
:10764200196E400E1A6E52C009F053C00AF0FEECD9
:107652002FF009C015F00AC016F00BC017F01FEC8E
:1076620034F015C024F016C025F017C026F0C00E65
:10767200276E7F0E286E440E296E32EC33F024C042
:107682004FF025C050F026C051F0000E036E010EDF
:10769200026E000E056E0C0E046EDBEC2FF0770E00
:1076A200406E000E416EFA0E426E7F0E436E4FC068
:1076B20044F050C045F051C046F0FCEC3BF0770E70
:1076C200026E000E036EF7EC30F0030E4E6E8A0E61
:1076D2004D6E560EE82EFED74D2EFCD74E2EFAD703
:1076E20081B296D678D781B493D6000E036E000E7F
:1076F200026E000E056E000E046EDBEC2FF0A70E7C
:10770200026E7F0E036EF7EC30F0030E4E6E8A0EA1
:107712004D6E560EE82EFED74D2EFCD74E2EFAD7C2
:10772200000E036E010E026E000E056E000E046E58
:10773200DBEC2FF0EE0E026E7F0E036EF7EC30F0F4
:10774200020E35EC30F001C052F002C053F0000ED0
:10775200186EA00E196E400E1A6E52C009F053C078
:107762000AF0FEEC2FF009C015F00AC016F00BC0AB
:1077720017F01FEC34F015C024F016C025F017C026
:1077820026F0C00E276E7F0E286E440E296E32EC54
:1077920033F024C04FF025C050F026C051F0000E47
:1077A200036E010E026E000E056E0C0E046EDBEC13
:1077B2002FF0770E406E000E416EFA0E426E7F0E73
:1077C200436E4FC044F050C045F051C046F0FCEC4F
:1077D2003BF0770E026E000E036EF7EC30F0030EF4
:1077E2004E6E8A0E4D6E560EE82EFED74D2EFCD7EB
:1077F2004E2EFAD778D7440E0001636F000E646FE5
:107802006BD3250E7619D8B407D040C0D9FF41C03A
:10781200DAFF76C0DFFF5ED3000E666F000E656F83
:1078220042C0F6FF43C0F7FF0800F5502E0AD8A465
:107832002FD0668D424A432A000E726F000E716F7E
:107842001CD071C00FF072C010F0000E126E0A0E42
:10785200116E22EC30F042C0F6FF43C0F7FF080081
:10786200F5500F26000E1022D00E0F240001716F6A
:10787200FF0E1020726F424A432A42C0F6FF43C0F5
:10788200F7FF0800F550BCEC2FF0D8A00AD0D9D7EA
:10789200000E0001726F000E716F668902D066855C
:1078A20012D042C0F6FF43C0F7FF424A432A080003
:1078B200F5CF76F000017651000AD8B419D3660AE2
:1078C200D8B4EDD709D3070E6615D8B4C9D266A9C4
:1078D20004D0000E726F060E716F63C0D9FF64C0D0
:1078E200DAFFDECF73F0DECF74F0DDCF75F0030E7A
:1078F2006327000E642375AF11D073C001F074C00A
:1079020002F075C003F010EC30F001C073F002C059
:1079120074F003C075F0030E00016513000E6C6F66
:10792200000E6B6F735174117511D8B486D0820E2C
:10793200476EFF0E486E73C049F074C04AF075C0BE
:107942004BF076C04CF0100E05D0D8904C324B3232
:107952004A324932E82EF9D7495047246B6F000E5C
:1079620048206C6F6B07D8A06C076BC00FF06CC01F
:1079720010F0000E126E030E116E22EC30F00FC0EA
:107982006BF010C06CF06BC007F06CC008F0000E1A
:107992000A6E0A0E096EFFEC31F007C06BF008C0E8
:1079A2006CF000016CAF03D06B07D8A06C076B5171
:1079B2000008C5EC37F024C06DF025C06EF026C07B
:1079C2006FF06DC015F06EC016F06FC017F073C087
:1079D20018F074C019F075C01AF01FEC34F015C01D
:1079E2006DF016C06EF017C06FF06DC001F06EC082
:1079F20002F06FC003F0000E046E800E056E3F0EA3
:107A0200066E41EC32F0D8B005D000016B07D8A069
:107A12006C0713D06DC001F06EC002F06FC003F0AE
:107A2200000E046E200E056E410E066E41EC32F021
:107A3200D8A003D000016B4B6C2B000172BF06D0A3
:107A420072511BE10D0E715DD8B017D073C02EF0CC
:107A520074C02FF075C030F071519CEC36F024C028
:107A620031F025C032F026C033F0C6EC35F02EC01E
:107A720073F02FC074F030C075F000016CBF06D0F7
:107A82006C5120E10A0E6B5DD8B01CD07351741199
:107A92007511D8B456D073C02BF074C02CF075C0D9
:107AA2002DF0A5EC33F02B502C102D102E10D8A455
:107AB20048D000016CBF45D06C5104E1020E6B5DF1
:107AC200D8A03FD06DC001F06EC002F06FC003F0CD
:107AD200700E046E890E056E400E066E41EC32F099
:107AE200D8B003D00001F70E02D00001F80E6B27C8
:107AF200FF0E6C236B51C5EC37F024C06DF025C02E
:107B02006EF026C06FF073C001F074C002F075C051
:107B120003F06DC004F06EC005F06FC006F02DECEE
:107B220035F001C067F002C068F003C069F004C01C
:107B32006AF0000E0001736F000E746F000E756F15
:107B420033D073C02BF074C02CF075C02DF0A5ECAF
:107B520033F02BC067F02CC068F02DC069F02EC046
:107B62006AF073C03AF074C03BF075C03CF067C075
:107B720009F068C00AF069C00BF06AC00CF025EC8D
:107B820031F009C03DF00AC03EF00BC03FF08AEC74
:107B920030F03AC073F03BC074F03CC075F0000E98
:107BA20000016C6F000E6B6F010E766F0A0E761974
:107BB200D8B418D07651040D010EF324F66E7F0E60
:107BC200F420F76E0900F550675D0900F550685919
:107BD2000900F55069590900F5506A59D8A002D038
:107BE200762BE4D7030E6515476E000E6615486EB8
:107BF20047504810D8B450D040C0D9FF41C0DAFF36
:107C02002D0E47D067C001F068C002F069C003F0D2
:107C12006AC004F07651040D010EF324F66E7F0E55
:107C2200F420F76E0900F5CF05F00900F5CF06F054
:107C32000900F5CF07F00A00F5CF08F0BEEC31F0ED
:107C420001C06DF002C06EF003C06FF004C070F0AE
:107C52006DC001F06EC002F06FC003F070C004F09E
:107C62000A0E056E000E066E000E076E000E086EFE
:107C720053EC31F001C06DF002C06EF003C06FF042
:107C820004C070F000016D51300F40C0D9FF41C0F7
:107C9200DAFFDF6E404A412A76077629D8B40CD043
:107CA200B1D740C0D9FF41C0DAFF300EDF6E404A83
:107CB200412A6B07D8A06C076CBF05D06C51F1E16B
:107CC2006B05D8B0EED772BF09D0725104E1090E2C
:107CD200715DD8A003D0080E766F02D071C076F025
:107CE2007651715F000E76BFFF0E725B7651D8B48B
:107CF20008D040C0D9FF41C0DAFF2E0EDF6E404AE5
:107D0200412A7651C5EC37F024C060F025C061F0FD
:107D120026C062F073C018F074C019F075C01AF072
:107D220060C015F061C016F062C017F01FEC34F0AD
:107D320015C02BF016C02CF017C02DF0A5EC33F0B7
:107D42002BC067F02CC068F02DC069F02EC06AF01D
:107D520071D067C001F068C002F069C003F06AC068
:107D620004F000017651040D010EF324F66E7F0E2D
:107D7200F420F76E0900F5CF05F00900F5CF06F003
:107D82000900F5CF07F00A00F5CF08F0BEEC31F09C
:107D920001C06DF002C06EF003C06FF004C070F05D
:107DA2006DC001F06EC002F06FC003F070C004F04D
:107DB2000A0E056E000E066E000E076E000E086EAD
:107DC20053EC31F001C06DF002C06EF003C06FF0F1
:107DD20004C070F000016D51300F40C0D9FF41C0A6
:107DE200DAFFDF6E404A412A67C001F068C002F044
:107DF20069C003F06AC004F07651040D010EF32449
:107E0200F66E7F0EF420F76E0900F5CF05F009003B
:107E1200F5CF06F00900F5CF07F00A00F5CF08F01C
:107E220053EC31F001C067F002C068F003C069F0A2
:107E320004C06AF0000176077629D8B40CD089D73D
:107E420040C0D9FF41C0DAFF300EDF6E404A412AFE
:107E52007107D8A0720771517211D8B43DD0F0D712
:107E620071517211D8A408D06751681169116A1151
:107E7200D8A402D0714B722B800E76BF7F0E476E54
:107E82007151765D7251800A4758D8B003D071C0E3
:107E920076F010D07251800A476E7651715D800E75
:107EA20076BF7F0E4758D8B005D07651716F726B8E
:107EB20071BF7207030E6515476E000E6615486E98
:107EC20047504810D8B408D040C0D9FF41C0DAFFAB
:107ED2002D0EDF6E404A412A42C0F6FF43C0F7FF33
:107EE200424A432A0800F5CF76F07651D8A489D4C5
:107EF20040C0D9FF41C0DAFF000EDF6E1200000160
:107F02000000000A00000064000000E80300001006
:107F1200270000A086010040420F008096980000D2
:107F2200E1F50500CA9A3B00803F00204100C842AB
:107F3200007A44401C4650C34724744997184BBCEE
:107F4200BE4C6B6E4E03155079AD60F349710080E3
:107F52003FCDCC3DD7233C12833AB7D138C6273721
:107F6200388635C0D633CC2B32708930E7DB2EE52C
:107F72003C1E42A20D2020202042792057454C531E
:107F8200202020200020202D202041444320312089
:107F9200202D20200020202D20204144432032206B
:107FA200202D20200020202D20204144432033205A
:107FB200202D2020002056415249414E444F20415D
:107FC20044432121004144432031203D2050554C5F
:107FD20031004144432032203D2050554C32004173
:107FE20044432033203D2050554C3300564F4C54CF
:0E7FF200414A452045533A00252E32660000D4
:020000040020DA
:08000000FFFFFFFFFFFFFFFF00
:020000040030CA
:0E000000000C191EFF8381FF0FC00FE00F40A0
:00000001FF
