:0400000080EF08F095
:10080000000E0E041F0E0F0A000000040E1F0E0E35
:100810000A0000000E0E041F0E110000110E0E043F
:100820001F0E1B000000000E111B110E0000070E12
:10083000040F140A110000070E050E140A1100001F
:1008400050726573696F6E612053746172742121F7
:10085000002A2A504F4B454D4F4E20474F212A2A00
:100860002A00455320434841524D414E44455221B0
:10087000210045532042554C4241534155522121BC
:10088000004553205351554952544C4521210045B0
:10089000532050494B4143485521210057656C7303
:1008A000204B657463687570000051EC08F06DECC6
:1008B00008F0000E036E000E026E000E056E000EB4
:1008C000046E40EC08F0510E026E080E036E0DEC43
:1008D00008F0030E0A6E8A0E096E560EE82EFED739
:1008E000092EFCD70A2EFAD7000E036E010E026EF7
:1008F000000E056E000E046E40EC08F0400E026E15
:10090000080E036E0DEC08F0030E0A6E8A0E096ED7
:10091000560EE82EFED7092EFCD70A2EFAD781B044
:1009200000EF00F0010ED1EC07F0370E056E080E57
:10093000066E000E076E27EC08F02E0E056E080EF0
:10094000066E010E076E27EC08F0250E056E080EE8
:10095000066E030E076E27EC08F01C0E056E080EDF
:10096000066E040E076E27EC08F0010E056E080EE9
:10097000066E050E076E27EC08F0130E056E080EC6
:10098000066E060E076E27EC08F00A0E056E080EBE
:10099000066E070E076E27EC08F00D0E0A6EAF0EFE
:1009A000096EB60EE82EFED7092EFCD70A2EFAD70E
:1009B00000D0000E036E000E026E000E056E000EDB
:1009C000046E40EC08F09C0E026E080E036E0DECF7
:1009D00008F00D0E0A6EAF0E096EB60EE82EFED7A9
:1009E000092EFCD70A2EFAD700D0000E036E010E96
:1009F000026E000E056E000E046E40EC08F0000E54
:100A0000ADEC07F0060E0A6E130E096EAE0EE82E60
:100A1000FED7092EFCD70A2EFAD781BE7AD0010E56
:100A2000D1EC07F0210E096E760EE82EFED7092EC6
:100A3000FCD700D0000E036E010E026E000E056E94
:100A4000000E046E40EC08F0010EADEC07F0030E52
:100A50000A6E8A0E096E560EE82EFED7092EFCD7B6
:100A60000A2EFAD7000E036E010E026E000E056EFE
:100A7000030E046E40EC08F0030EADEC07F0030E1D
:100A80000A6E8A0E096E560EE82EFED7092EFCD786
:100A90000A2EFAD7000E036E010E026E000E056ECE
:100AA000050E046E40EC08F0040EADEC07F0030EEA
:100AB0000A6E8A0E096E560EE82EFED7092EFCD756
:100AC0000A2EFAD7000E036E000E026E000E056E9F
:100AD000000E046E40EC08F08F0E026E080E036EDE
:100AE0000DEC08F0270E0A6E0D0E096E260EE82E8C
:100AF000FED7092EFCD70A2EFAD700D0010ED1EC72
:100B000007F0210E096E760EE82EFED7092EFCD7CF
:100B100000D081BA7AD0010ED1EC07F0210E096E17
:100B2000760EE82EFED7092EFCD700D0000E036EFD
:100B3000010E026E000E056E000E046E40EC08F011
:100B4000010EADEC07F0030E0A6E8A0E096E560E0A
:100B5000E82EFED7092EFCD70A2EFAD7000E036E18
:100B6000010E026E000E056E030E046E40EC08F0DE
:100B7000030EADEC07F0030E0A6E8A0E096E560ED8
:100B8000E82EFED7092EFCD70A2EFAD7000E036EE8
:100B9000010E026E000E056E050E046E40EC08F0AC
:100BA000050EADEC07F0030E0A6E8A0E096E560EA6
:100BB000E82EFED7092EFCD70A2EFAD7000E036EB8
:100BC000000E026E000E056E000E046E40EC08F082
:100BD000620E026E080E036E0DEC08F0270E0A6E10
:100BE0000D0E096E260EE82EFED7092EFCD70A2E12
:100BF000FAD700D0010ED1EC07F0210E096E760E67
:100C0000E82EFED7092EFCD700D081B87AD0010E8D
:100C1000D1EC07F0210E096E760EE82EFED7092ED4
:100C2000FCD700D0000E036E010E026E000E056EA2
:100C3000000E046E40EC08F0010EADEC07F0030E60
:100C40000A6E8A0E096E560EE82EFED7092EFCD7C4
:100C50000A2EFAD7000E036E010E026E000E056E0C
:100C6000030E046E40EC08F0030EADEC07F0030E2B
:100C70000A6E8A0E096E560EE82EFED7092EFCD794
:100C80000A2EFAD7000E036E010E026E000E056EDC
:100C9000050E046E40EC08F0060EADEC07F0030EF6
:100CA0000A6E8A0E096E560EE82EFED7092EFCD764
:100CB0000A2EFAD7000E036E000E026E000E056EAD
:100CC000000E046E40EC08F0810E026E080E036EFA
:100CD0000DEC08F0270E0A6E0D0E096E260EE82E9A
:100CE000FED7092EFCD70A2EFAD700D0010ED1EC80
:100CF00007F0210E096E760EE82EFED7092EFCD7DE
:100D000000D081B456D6010ED1EC07F0210E096E49
:100D1000760EE82EFED7092EFCD700D0000E036E0B
:100D2000010E026E000E056E000E046E40EC08F01F
:100D3000010EADEC07F0030E0A6E8A0E096E560E18
:100D4000E82EFED7092EFCD70A2EFAD7000E036E26
:100D5000010E026E000E056E030E046E40EC08F0EC
:100D6000030EADEC07F0030E0A6E8A0E096E560EE6
:100D7000E82EFED7092EFCD70A2EFAD7000E036EF6
:100D8000010E026E000E056E050E046E40EC08F0BA
:100D9000070EADEC07F0030E0A6E8A0E096E560EB2
:100DA000E82EFED7092EFCD70A2EFAD7000E036EC6
:100DB000000E026E000E056E000E046E40EC08F090
:100DC000720E026E080E036E0DEC08F0270E0A6E0E
:100DD0000D0E096E260EE82EFED7092EFCD70A2E20
:100DE000FAD700D0010ED1EC07F0210E096E760E75
:100DF000E82EFED7092EFCD7DBD5056EF00E831644
:100E0000F00E9516959C959A95988C9C8C9A8C983A
:100E100078EC08F0300ED1EC07F000D000D000F0F4
:100E2000300ED1EC07F000D000D000F0320ED1EC43
:100E300007F0F0EC07F00009D8A4FBD7F0EC07F0BE
:100E40000009D8A4FBD70550D1EC07F0F0EC07F06F
:100E50000009D8A4FBD7080ED1EC07F0F0EC07F09E
:100E60000009D8A4FBD70F0ED1EC07F0F0EC07F087
:100E70000009D8A4FBD7010ED1EC07F0F0EC07F085
:100E80000009D8A4FBD7040ED1EC07F0F0EC07F072
:100E90000009D8A4FBD7800E84EC07F01200046E82
:100EA000F0EC07F00009D8A4FBD7F00E9516F00E71
:100EB00083160450016E026A400E0112000E0212E7
:100EC000040E036E023402320132032EFBD70150AE
:100ED0000F0B83128C9C8C9A00D000D000F08C8871
:100EE00000D000D000F08C98F00E831604500F0B49
:100EF000831200D000D000F08C8800D000D000F029
:100F00008C980F0E95121200046EF00E9516F00ECE
:100F100083160450016E026A018E040E036E0234C1
:100F200002320132032EFBD701500F0B83128C9C2F
:100F30008C9A60EC08F08C8860EC08F08C98F00ECD
:100F4000831604500F0B831260EC08F08C8860EC61
:100F500008F08C980F0E95121200016EF0EC07F05D
:100F60000009D8A4FBD7F00E9516F00E83160138B1
:100F70000F0B0F0B83128C8A8C9C60EC08F08C8812
:100F800060EC08F08C98F00E831601500F0B831262
:100F900060EC08F08C8860EC08F08C980F0E9512CD
:100FA0001200016EF00E9516F00E831601380F0B2D
:100FB0000F0B83128C9C8C9A60EC08F08C8860EC90
:100FC00008F08C98F00E831601500F0B831260EC22
:100FD00008F08C8860EC08F08C980F0E95121200C7
:100FE0008C8C8C9A60EC08F08C8860EC08F083A6FE
:100FF0000AD08C9860EC08F08C8860EC08F08C9833
:101000008C9C010E12008C9860EC08F08C8860ECCF
:1010100008F08C988C9C000E12000FD0F0EC07F0BA
:101020000009D8A4FBD702C0F6FF03C0F7FF0800F1
:10103000F550ADEC07F0024A032A02C0F6FF03C0E8
:10104000F7FF0800F5500009D8B41200E7D7000EEA
:10105000086E0750080DF3504FEC07F0000E086EB5
:10106000070E086401D0120005C0F6FF06C0F7FFA6
:101070000800F550ADEC07F0054A062A082AF0D71B
:1010800003BE0AD0035003E10204D8A005D00450E7
:10109000C00FD1EC07F012000450800FD1EC07F024
:1010A0001200280EFDEC06F0F0EC07F00009D8A4C1
:1010B000FBD7060ED1EC07F00C0ED1EC07F01200B6
:1010C00000F000F000F000F000F000F000F000F0A0
:1010D00000F000F000F000F01200C180C182C18475
:1010E000C1869380938E938A93889384F19E120095
:1010F000620E016E660EE82EFED7012EFCD712009E
:0E110000000EF86E080EF76E000155EF04F0B9
:020000040020DA
:08000000FFFFFFFFFFFFFFFF00
:020000040030CA
:0E000000000C191EFF8381FF0FC00FE00F40A0
:00000001FF
