:020000040000FA
:0400000007EF00F016
:10000800058236ED00F03CEF00F00F0EC112000E35
:10001800956E9380D39EF19CF288F292F28E8C902A
:10002800000E026E010E016E8CA002D0010E01D0EE
:10003800000EFF0A036E8C500318FE0B03188C6E1B
:10004800030E046E8A0E036E560EE82EFED7032E9C
:10005800FCD7042EFAD701D0030001040210D8A45B
:10006800E3D7FAD70600011E021EF292059211008C
:0A00780005900592000109EF00F069
:020000040020DA
:08000000FFFFFFFFFFFFFFFF00
:020000040030CA
:0E000000000C1F1EFF8385FF0FC00FE00F4096
:00000001FF
