:020000040000FA
:0400000007EF00F016
:0A0008005F8211ED13F038EF15F0E0
:1008000000C30809083D086B0834034D0069006304
:100810000072006F006300680069007000200054DF
:10082000006500630068006E006F006C006F006779
:10083000007900200049006E0063002E002E03574F
:100840000045004C00530020005500530042004872
:1008500000490044004400650076006900630065BB
:10086000002000440065006D006F000902290001AE
:100870000100C06409040000020300000009211106
:10088000010001221D000705810340000107050149
:10089000034000010600FF0901A1011901294015CB
:1008A0000026FF007508954081001901294091003C
:1008B000C01201000200000008D8043F000001013E
:1008C000020001040309040004012205D8A46BEF0F
:1008D00004F06DEF04F089EF04F020511F0B0009C4
:1008E000D8A475EF04F077EF04F089EF04F03F8EA1
:1008F000030E2119D8A47FEF04F081EF04F085EFF7
:1009000004F0010E586E89EF04F0000E586E89EF66
:1009100004F02251D8A48FEF04F091EF04F026EFF9
:1009200006F020511F0B020AD8A499EF04F09BEFA8
:1009300004F026EF06F024510F0B0009D8B4A3EF02
:1009400004F0A5EF04F026EF06F024510F0B156E0E
:10095000020E1560AEEF04F0B0EF04F026EF06F0E3
:10096000200E5B18D8A4B7EF04F0B9EF04F026EF1F
:1009700006F03F8E24BFBFEF04F0C1EF04F0DFEFBD
:1009800004F024510F0B156E1550020D460EF32482
:10099000D96E000EF420DA6EDECF19F0DDCF1AF03A
:1009A00024510F0B156E1550010D4C0EF324D96E0A
:1009B000000EF420DA6EDF50186EFDEF04F02451C3
:1009C0000F0B156E1550020D420EF324D96E000E5A
:1009D000F420DA6EDECF19F0DDCF1AF024510F0BC0
:1009E000156E1550010D4E0EF324D96E000EF42035
:1009F000DA6EDF50186EFDEF04F018B002EF05F06C
:100A000004EF05F00CEF05F0FB0E1914196EFF0E44
:100A10001A141A6E13EF05F0040E1910196E1A50FD
:100A20001A6E13EF05F024BF18EF05F01AEF05F06A
:100A30002BEF05F024510F0B156E1550020D460ECD
:100A4000F324D96E000EF420DA6E19C0DEFF1AC04E
:100A5000DDFF3CEF05F024510F0B156E1550020D14
:100A6000420EF324D96E000EF420DA6E19C0DEFFB8
:100A70001AC0DDFF3CEF05F0030E2119D8A443EFA7
:100A800005F045EF05F083EF05F019C0D9FF1AC056
:100A9000DAFFDFAE4EEF05F050EF05F075EF05F031
:100AA00024BF55EF05F057EF05F065EF05F0245131
:100AB0000F0B156E1550010D4C0EF324D96E000E60
:100AC000F420DA6EDF8275EF05F024510F0B156EFE
:100AD0001550010D4E0EF324D96E000EF420DA6E7F
:100AE000DF8275EF05F075EF05F019C0D9FF1AC068
:100AF000DAFF000EDB8419C0D9FF1AC0DAFF000E3E
:100B0000DB8E26EF06F0040E1918196E1A501A6EB5
:100B100019C0D9FF1AC0DAFFDFAE91EF05F093EFED
:100B200005F0AFEF05F019C0D9FF1AC0DAFF7F0E4C
:100B3000DF1619C0D9FF1AC0DAFF000EDB8C000ED9
:100B40000E6E050E0D6E19C00FF01AC010F0000EDB
:100B5000126E020E116E3FEC11F0B7EF05F019C0E6
:100B6000D9FF1AC0DAFF000EDB8CB7EF05F0040ED8
:100B70001918196E1A501A6E18B2C1EF05F0C3EFAA
:100B800005F0CEEF05F019C0D9FF1AC0DAFFDFAECD
:100B9000CCEF05F0CEEF05F008EF06F0040124BF1E
:100BA000D4EF05F0D6EF05F0E4EF05F024510F0B7C
:100BB000156E1550010D4C0EF324D96E000EF42065
:100BC000DA6EDF92F2EF05F024510F0B156E15501F
:100BD000010D4E0EF324D96E000EF420DA6EDF9272
:100BE000F2EF05F019C0D9FF1AC0DAFF3B0EDF168D
:100BF000000E0E6E050E0D6E19C00FF01AC010F02B
:100C0000000E126E020E116E3FEC11F010EF06F0A6
:100C100019C0D9FF1AC0DAFF3B0EDF1610EF06F03D
:100C2000040124510F0B156E1550010D700EF324A5
:100C3000166E0F0EF420176E16C0D9FF17C0DAFF1C
:100C4000FE0EDF1626EF06F026EF06F012005B041C
:100C5000D8A42DEF06F02FEF06F040EF06F06DBAA6
:100C600034EF06F036EF06F040EF06F0000E686E47
:100C700069806988020E5B6E40EF06F040EF06F077
:100C800068A445EF06F047EF06F053EF06F069A4BD
:100C90004CEF06F04EEF06F053EF06F068944FEC81
:100CA00014F053EF06F06DA258EF06F05AEF06F07D
:100CB0005DEF06F0A19A68EF07F068A062EF06F01A
:100CC00064EF06F073EF06F069A069EF06F06BEFD2
:100CD00006F073EF06F030EC08F0A08A040E5B6EAD
:100CE000689073EF06F068A878EF06F07AEF06F0E8
:100CF00085EF06F069A87FEF06F081EF06F085EF3B
:100D000006F021EC15F085EF06F068AC8AEF06F0EE
:100D10008CEF06F0BFEF06F069AC91EF06F093EFB1
:100D200006F0A3EF06F0000E0E6E730E0D6E000EB1
:100D30000F6E000E106E000E126E010E116E3FEC63
:100D400011F0A3EF06F0689CB3EC14F05550D8B442
:100D5000ACEF06F0AEEF06F0B1EF06F05506B1EFDE
:100D600006F05550D8A4B7EF06F0B9EF06F0BFEF84
:100D700006F05EEC10F0BFEF06F0BFEF06F068AAD9
:100D8000C4EF06F0C6EF06F0D1EF06F069AACBEF8C
:100D900006F0CDEF06F0D1EF06F046EC13F0D1EF00
:100DA00006F068A2D6EF06F0D8EF06F0F0EF06F0F6
:100DB00069A2DDEF06F0DFEF06F0F0EF06F07F0E40
:100DC0000E6E0D68000E0F6E000E106E000E126E8D
:100DD000010E116E3FEC11F0000E6A6EF0EF06F09E
:100DE000040E5B60F6EF06F0F8EF06F0FBEF06F09E
:100DF000A19A68EF07F069A600EF07F002EF07F08D
:100E000067EF07F0000E1C6E030E1C640AEF07F07C
:100E10000CEF07F010EF07F067EF07F067EF07F050
:100E200068A615EF07F017EF07F067EF07F06CCF34
:100E30005CF05C30E832E8320F0B566E68965CB4BA
:100E400024EF07F026EF07F031EF07F05650010DC1
:100E50004C0EF324D96E000EF420DA6EDF703CEFF6
:100E600007F05650010D4E0EF324D96E000EF420FB
:100E7000DA6EDF703CEF07F05650D8A442EF07F06F
:100E800044EF07F048EF07F0DDEC10F05CEF07F0FF
:100E9000000E0E6E720E0D6E5C0E0F6E000E106E5A
:100EA000000E126E000E116E3FEC11F05CEF07F0B9
:100EB0005CEF07F067EF07F01C2A030E1C6463EF7A
:100EC00007F065EF07F010EF07F067EF07F0A19A62
:100ED0001200A09A000E6A6E000E686E000E706E10
:100EE000710E296E0F0E2A6E000E2C6E000E2B6EE8
:100EF000000E2E6E010E2D6E73EC14F0160E6F6E3A
:100F00009F0E6B6E7B0E696E000E316E070E3164A4
:100F10008CEF07F08EEF07F092EF07F0A7EF07F0E6
:100F2000A7EF07F03150040D000EF324D96E040E24
:100F3000F420DA6EDE6ADE6ADE6ADD6A312A070EC6
:100F40003164A5EF07F0A7EF07F092EF07F06D8C83
:100F5000000E6E6E6D986D9CAEEF07F06896000EF9
:100F60003F6E000E376E000E396E000E386E68B69A
:100F7000BCEF07F0BEEF07F0AEEF07F0C0EF07F0F1
:100F8000010E00016E6F010E6D6F000E6C6F000E92
:100F90006B6F000E576E000E316E010E3164D3EF91
:100FA00007F0D5EF07F0D9EF07F010EF08F010EFDA
:100FB00008F03150020D420EF324D96E000EF420D9
:100FC000DA6E000EDE6E000EDD6E3150020D460E42
:100FD000F324D96E000EF420DA6E000EDE6E000EE1
:100FE000DD6E3150010D4E0EF324D96E000EF4204B
:100FF000DA6E000EDF6E3150010D4C0EF324D96E07
:10100000000EF420DA6E000EDF6E312A010E31641C
:101010000CEF08F00EEF08F0D9EF07F010EF08F032
:10102000080E426E040E436E160E706E040E04011E
:10103000036F200E026F080E016F040E006F008F09
:10104000000E5E6E000E0001606F000E616F000EFC
:10105000626F000E636F000E6A6F000E5B6E12000F
:10106000A09A000E6A6E000E686E000E706E710E11
:10107000016E0F0E026E000E046E000E036E000E67
:10108000066E010E056E93EC14F0160E6F6E9F0E39
:101090006B6E7B0E696E000E096E070E096453EFCE
:1010A00008F055EF08F059EF08F06EEF08F06EEF1A
:1010B00008F00950040D000EF324D96E040EF4203C
:1010C000DA6EDE6ADE6ADE6ADD6A092A070E096404
:1010D0006CEF08F06EEF08F059EF08F06D8C000E21
:1010E0006E6E6D986D9C75EF08F06896000E3F6E01
:1010F000000E376E000E396E000E386E68B683EF44
:1011000008F085EF08F075EF08F087EF08F0010EA2
:1011100000016E6F010E6D6F000E6C6F000E6B6F35
:10112000000E576E000E096E010E09649AEF08F06A
:101130009CEF08F0A0EF08F0D7EF08F0D7EF08F029
:101140000950020D420EF324D96E000EF420DA6E1F
:10115000000EDE6E000EDD6E0950020D460EF32409
:10116000D96E000EF420DA6E000EDE6E000EDD6E1B
:101170000950010D4E0EF324D96E000EF420DA6EE4
:10118000000EDF6E0950010D4C0EF324D96E000ED7
:10119000F420DA6E000EDF6E092A010E0964D3EF27
:1011A00008F0D5EF08F0A0EF08F0D7EF08F0080E30
:1011B000426E040E436E160E706E040E0401036F31
:1011C000200E026F080E016F040E006F008F000EDC
:1011D0005E6E000E0001606F000E616F000E626FA8
:1011E000000E636F000E6A6F000E5B6E120004014A
:1011F00020511F0BE806D8B400EF09F002EF09F008
:1012000006EF09F0ACEF09F0ACEF09F02451D8B4C7
:101210000CEF09F00EEF09F012EF09F0ACEF09F056
:10122000ACEF09F0060E2119D8A419EF09F01BEF55
:1012300009F056EF09F045EF09F045EF09F05E04BB
:10124000D8A425EF09F027EF09F056EF09F07D0E3D
:101250003C6E080E3D6E000E416E090E406EC00ED3
:101260003F6E56EF09F056EF09F0940E3C6E080EF3
:101270003D6E000E416E1D0E406EC00E3F6E56EF6D
:1012800009F056EF09F056EF09F02351210AD8B4BE
:101290001FEF09F0030AD8B435EF09F0010AD8B4FA
:1012A00056EF09F056EF09F056EF09F02039E83211
:1012B000030BE806D8B45FEF09F061EF09F091EF96
:1012C00009F0ACEF09F0ACEF09F091EF09F0ACEFE9
:1012D00009F0ACEF09F0710E3C6E000E3D6E000E91
:1012E000416E010E406EC10E3F6EACEF09F0800EF4
:1012F0003F6E23C471F0ACEF09F0700E3C6E000E2F
:101300003D6E000E416E010E406E810E3F6EACEFE1
:1013100009F0800E3F6E22C470F0ACEF09F0ACEF24
:1013200009F02151010AD8B4ACEF09F0030AD8B48E
:101330006BEF09F0010AD8B47DEF09F00A0AD8B4BE
:10134000ACEF09F0030AD8B477EF09F0010AD8B47A
:1013500089EF09F0ACEF09F012006D983FBEB3EFD2
:1013600009F0B5EF09F000EF0AF037AEBAEF09F077
:10137000BCEF09F0D2EF09F0020E596E00016B517B
:10138000D8A4C5EF09F0C7EF09F0CBEF09F0A1EC45
:1013900011F0CBEF09F0000E00016D6F000E6E6FC3
:1013A0005FEF0AF020EE01F05050D9265150DA22BA
:1013B000080EDF6E20EE02F05050D9265150DA228E
:1013C000200EDE6E040EDD6E50C0D9FF51C0DAFF74
:1013D0000C0EDF6E50C0D9FF51C0DAFF000EDB8E5D
:1013E00042C0D9FF43C0DAFF040EDF6E42C0D9FF0E
:1013F00043C0DAFF000EDB8E5FEF0AF05FEF0AF00A
:10140000040120AF06EF0AF008EF0AF02AEF0AF015
:10141000010E596E00016C51D8A411EF0AF013EFC0
:101420000AF017EF0AF0A1EC11F017EF0AF0000E26
:1014300000016D6F000E6E6F5450D8A422EF0AF0B9
:1014400024EF0AF05FEF0AF05EEC10F05FEF0AF0B5
:101450005FEF0AF0020E596E20EE01F05050D926CF
:101460005150DA22080EDF6E20EE02F05050D926DD
:101470005150DA22200EDE6E040EDD6E50C0D9FF10
:1014800051C0DAFF040EDF6E50C0D9FF51C0DAFF41
:10149000000EDB8E000E00016D6F000E6E6F54505B
:1014A000D8A455EF0AF057EF0AF05FEF0AF05EECB0
:1014B00010F05FEF0AF05FEF0AF05FEF0AF0120042
:1014C000800E04012019D8A468EF0AF06AEF0AF030
:1014D0000FEF0BF0C00E3F6EFDEF0AF0B10E3C6E49
:1014E000080E3D6E000E416E120E406E0FEF0BF0B7
:1014F0002251D8A47EEF0AF080EF0AF0BEEF0AF086
:101500002251020D070EF324F66E080EF420F76E3A
:101510000900F5CF3CF00A00F5CF3DF0020E3C2467
:10152000016E000E3D20026E01C0F6FF02C0F7FF03
:10153000F86A070EF76403D00800F55005D0F6CF1F
:10154000E9FFF7CFEAFFEF50406E030E3C24016E37
:10155000000E3D20026E01C0F6FF02C0F7FFF86AE0
:10156000070EF76403D00800F55005D0F6CFE9FF69
:10157000F7CFEAFFEF50416E0FEF0BF0000E3F6E1A
:101580000FEF0BF00FEF0BF0030E04012261CBEF16
:101590000AF0CDEF0AF0F1EF0AF02251020D010E30
:1015A000F324F66E080EF420F76E0900F5CF3CF038
:1015B0000A00F5CF3DF03CC0F6FF3DC0F7FFF86AEA
:1015C000070EF76403D00800F55005D0F6CFE9FF09
:1015D000F7CFEAFFEF50016E0150406E416A0FEF06
:1015E0000BF0000E3F6E0FEF0BF00FEF0BF0000E45
:1015F0003F6E0FEF0BF00FEF0BF004012351010AC8
:10160000D8B46EEF0AF0030AD8B478EF0AF0010AF2
:10161000D8B4C4EF0AF0F7EF0AF00FEF0BF01200A6
:1016200020EE01F05250D9265350DA22DF50026EDC
:101630000250385C000E3958D8B021EF0BF023EF80
:101640000BF027EF0BF038C002F027EF0BF0025041
:10165000385E000E395A000E016E42EF0BF0015059
:10166000010D280EF324D96E040EF420DA6E34C076
:10167000E1FF35C0E2FFDFCFE7FF344A352A012A18
:1016800042EF0BF00250015CD8A049EF0BF04BEF9A
:101690000BF02FEF0BF04DEF0BF038503910D8B4A2
:1016A00054EF0BF056EF0BF091EF0BF020EE01F042
:1016B0005050D9265150DA22080EDF6E20EE02F08B
:1016C0005050D9265150DA22280EDE6E040EDD6EFF
:1016D00052C0D9FF53C0DAFFDFBC71EF0BF073EFDC
:1016E0000BF081EF0BF050C0D9FF51C0DAFF480E6C
:1016F000DF6E50C0D9FF51C0DAFF000EDB8EBEEFA7
:101700000BF050C0D9FF51C0DAFF080EDF6E50C099
:10171000D9FF51C0DAFF000EDB8EBEEF0BF0BEEF3B
:101720000BF020EE01F05050D9265150DA22080E6D
:10173000DF6E20EE02F05050D9265150DA22200EF2
:10174000DE6E040EDD6E50C0D9FF51C0DAFF040E0C
:10175000DF6E50C0D9FF51C0DAFF000EDB8E379E1E
:101760005450D8A4B6EF0BF0B8EF0BF0BEEF0BF06F
:101770005EEC10F0BEEF0BF0BEEF0BF01200316E1E
:101780002950D8B4C6EF0BF0C8EF0BF0D6EF0BF032
:101790003150020D420EF324D96E000EF420DA6EA1
:1017A000DECF32F0DDCF33F0E4EF0BF03150020D3D
:1017B000460EF324D96E000EF420DA6EDECF32F03E
:1017C000DDCF33F0E4EF0BF032503310D8A4EBEF61
:1017D0000BF0EDEF0BF0F5EF0BF0000E296E000EA5
:1017E0002A6E65EF0CF065EF0CF020EE02F032503F
:1017F000D9263350DA222AC0DEFF2BC0DDFF20EECF
:1018000001F03250D9263350DA222CC0DFFF32C02B
:10181000D9FF33C0DAFF400EDF1632C0D9FF33C024
:10182000DAFF000EDB8632C0D9FF33C0DAFF000ECC
:10183000DB8E2950D8B41FEF0CF021EF0CF040EFF5
:101840000CF03150020D420EF324D96E000EF4203C
:10185000DA6EDECF2DF0DDCF2EF0040E2D182F6EB8
:101860002E50306E3150020D420EF324D96E000E10
:10187000F420DA6E2FC0DEFF30C0DDFF5FEF0CF02A
:101880003150020D460EF324D96E000EF420DA6EAC
:10189000DECF2DF0DDCF2EF0040E2D182F6E2E5042
:1018A000306E3150020D460EF324D96E000EF42036
:1018B000DA6E2FC0DEFF30C0DDFF5FEF0CF032C00C
:1018C00029F033C02AF065EF0CF01200096E0150C8
:1018D000D8B46DEF0CF06FEF0CF07DEF0CF0095009
:1018E000020D420EF324D96E000EF420DA6EDECF24
:1018F0000AF0DDCF0BF08BEF0CF00950020D460E15
:10190000F324D96E000EF420DA6EDECF0AF0DDCFBC
:101910000BF08BEF0CF00A500B10D8A492EF0CF0E8
:1019200094EF0CF09CEF0CF0000E016E000E026EB6
:101930000CEF0DF00CEF0DF020EE02F00A50D9265E
:101940000B50DA2202C0DEFF03C0DDFF20EE01F003
:101950000A50D9260B50DA2204C0DFFF0AC0D9FF93
:101960000BC0DAFF400EDF160AC0D9FF0BC0DAFF4A
:10197000000EDB860AC0D9FF0BC0DAFF000EDB8E3B
:101980000150D8B4C6EF0CF0C8EF0CF0E7EF0CF044
:101990000950020D420EF324D96E000EF420DA6EC7
:1019A000DECF05F0DDCF06F0040E0518076E0650F9
:1019B000086E0950020D420EF324D96E000EF42079
:1019C000DA6E07C0DEFF08C0DDFF06EF0DF009503C
:1019D000020D460EF324D96E000EF420DA6EDECF2F
:1019E00005F0DDCF06F0040E0518076E0650086EF0
:1019F0000950020D460EF324D96E000EF420DA6E63
:101A000007C0DEFF08C0DDFF06EF0DF00AC001F0E1
:101A10000BC002F00CEF0DF01200080E016E4150E9
:101A200007E1080E405CD8B018EF0DF01AEF0DF08A
:101A300038EF0DF040C001F05A50D8A422EF0DF05D
:101A400024EF0DF028EF0DF0010E5A6E38EF0DF077
:101A50005A04D8A42EEF0DF030EF0DF038EF0DF052
:101A6000020E5A6E38EF0DF038EF0DF038EF0DF032
:101A70000150405E000E415A20EE01F04250D9263E
:101A80004350DA2201C0DFFF280E0001686F040E08
:101A9000696F3FB04EEF0DF050EF0DF09CEF0DF081
:101AA00071EF0DF071EF0DF03CC0F6FF3DC0F7FF98
:101AB000F86A68C0D9FF69C0DAFF070EF76403D07F
:101AC0000800F55005D0F6CFE9FFF7CFEAFFEF5059
:101AD000DF6E3C4A3D2A0001684B692B010671EF1D
:101AE0000DF00150D8A477EF0DF079EF0DF054EF21
:101AF0000DF0A8EF0DF0A8EF0DF09CEF0DF03CC03D
:101B0000F6FF3DC0F7FFF86A68C0D9FF69C0DAFF89
:101B1000070EF76403D00800F55005D0F6CFE9FFB3
:101B2000F7CFEAFFEF50DF6E3C4A3D2A0001684BD9
:101B3000692B01069CEF0DF00150D8A4A2EF0DF027
:101B4000A4EF0DF07FEF0DF0A8EF0DF0A8EF0DF072
:101B5000120004012039E832030B0009D8B4B3EFB6
:101B60000DF0B5EF0DF00EEF0EF03EEF0EF03EEF84
:101B70000EF00EEF0EF03F8E080E5B6E3EEF0EF095
:101B800060EC0AF03EEF0EF0CDEC0EF03EEF0EF002
:101B90005E0E3C6E000E3D6E3F80010E406E3F8E2D
:101BA0003EEF0EF054EC0FF03EEF0EF0D8EF0DF0DC
:101BB00064EC04F03EEF0EF004012451010D5D0EC3
:101BC000F3243C6E000EF4203D6E3F80010E406E0B
:101BD0003F8E3EEF0EF03F8E2451010D5D0EF3243B
:101BE000D96E000EF420DA6E22C4DFFF3EEF0EF055
:101BF000000E0E6E020E0D6E000E0F6E000E106EB9
:101C0000000E126E000E116E3FEC11F03EEF0EF062
:101C10003EEF0EF03EEF0EF03EEF0EF004012151CC
:101C2000000AD8B4D2EF0DF0010AD8B4D8EF0DF005
:101C3000020AD8B4D8EF0DF0060AD8B4BBEF0DF005
:101C4000030AD8B4C0EF0DF0010AD8B4F8EF0DF0D4
:101C50000F0AD8B4C8EF0DF0010AD8B4C4EF0DF0E4
:101C6000030AD8B4DCEF0DF0010AD8B4EBEF0DF0A5
:101C7000070AD8B43EEF0EF03EEF0EF0120042C05D
:101C8000D9FF43C0DAFF000EDFBC010E026E040E66
:101C90004218426E4350436E080E5B18D8A453EFAF
:101CA0000EF055EF0EF06BEF0EF0040122517F0B9A
:101CB0006E6E6E50D8B45FEF0EF061EF0EF065EF10
:101CC0000EF0100E5B6E6BEF0EF0040E5B6E6BEFA2
:101CD0000EF06BEF0EF05904D8A471EF0EF073EF15
:101CE0000EF0BEEF0EF020EE02F04250D926435027
:101CF000DA22280EDE6E040EDD6E0DEC0DF0020E03
:101D00005A18D8A486EF0EF088EF0EF096EF0EF07A
:101D100042C0D9FF43C0DAFF040EDF6E42C0D9FFD4
:101D200043C0DAFF000EDB8ECCEF0EF00250D8A4D9
:101D30009CEF0EF09EEF0EF0ACEF0EF042C0D9FF1C
:101D400043C0DAFF480EDF6E42C0D9FF43C0DAFF5E
:101D5000000EDB8ECCEF0EF042C0D9FF43C0DAFF9D
:101D6000080EDF6E42C0D9FF43C0DAFF000EDB8EE3
:101D7000CCEF0EF0CCEF0EF0CCEF0EF037AEC3EFA1
:101D80000EF0C5EF0EF0C8EF0EF0379EC8EF0EF064
:101D9000000E596ECCEF0EF012003F8E710E016EE8
:101DA0000F0E026E000E046E000E036E000E066E25
:101DB000010E056E93EC14F0000E016E040E026E1F
:101DC000000E046E000E036E000E066E200E056EF1
:101DD00093EC14F06D8C000E156E010E1564F3EF8C
:101DE0000EF0F5EF0EF0F9EF0EF018EF0FF018EF20
:101DF0000FF01550010D4E0EF324D96E000EF42095
:101E0000DA6E000EDF6E1550010D4C0EF324D96E04
:101E1000000EF420DA6E000EDF6E152A010E156436
:101E200014EF0FF016EF0FF0F9EF0EF018EF0FF0C0
:101E30005D0E016E000E026E000E046E000E036E4B
:101E4000000E066E010E056E93EC14F06D9C080EEC
:101E5000426E040E436E000E526E040E536E52C05C
:101E600050F053C051F022C45EF05E50D8A43BEF56
:101E70000FF03DEF0FF041EF0FF0100E5B6E53EFE0
:101E80000FF0000E0E6E010E0D6E5E0E0F6E000E48
:101E9000106E000E126E010E116E3FEC11F0200E4E
:101EA0005B6E53EF0FF01200000E0401286F000E5E
:101EB000296FB9EF0FF03F8E61EF0FF0288161EFCE
:101EC0000FF05804D8A467EF0FF069EF0FF0C9EFD7
:101ED0000FF02883C9EF0FF0C9EF0FF03F8EC9EF65
:101EE0000FF03F8E24BF77EF0FF079EF0FF08AEFFE
:101EF0000FF024510F0B016E0150020D460EF3241A
:101F0000D96E000EF420DA6EDECF02F0DDCF03F0E2
:101F10009BEF0FF024510F0B016E0150020D420E8A
:101F2000F324D96E000EF420DA6EDECF02F0DDCF9E
:101F300003F09BEF0FF002C0D9FF03C0DAFFDFAE62
:101F4000A4EF0FF0A6EF0FF0C9EF0FF002C0D9FF1A
:101F500003C0DAFFDFA4AFEF0FF0B1EF0FF0C9EF6E
:101F60000FF0010E286FC9EF0FF0C9EF0FF0C9EFA6
:101F70000FF020511F0B000AD8B45BEF0FF0010ADD
:101F8000D8B46EEF0FF0030AD8B471EF0FF0C9EFB9
:101F90000FF03FAECEEF0FF0D0EF0FF0D9EF0FF014
:101FA000280E3C6E040E3D6E3F80020E406ED9EF4F
:101FB0000FF012006DA2DFEF0FF0E1EF0FF054EF22
:101FC00010F0010EFBEC13F05DEF10F05DEF10F080
:101FD00054EF10F04A044B10D8A4F1EF0FF0F3EFD8
:101FE0000FF0F8EF0FF0010ED0EC13F05BEF10F0F4
:101FF0004B0E4A184B10D8A400EF10F002EF10F06F
:1020000007EF10F0010EFBEC13F05BEF10F04B50FC
:1020100009E1970E4A5CD8A010EF10F012EF10F013
:102020005BEF10F0000E4B6E000E4A6E5BEF10F08F
:102030005BEF10F05BEF10F05BEF10F04A044B1019
:10204000D8A425EF10F027EF10F02CEF10F0010EC0
:10205000D0EC13F05BEF10F0320E4A184B10D8A4FE
:1020600034EF10F036EF10F03BEF10F0010EFBEC08
:1020700013F05BEF10F0B70E4A5C030E4B58D8A07C
:1020800044EF10F046EF10F05BEF10F0000E4B6ED7
:10209000000E4A6E5BEF10F05BEF10F05BEF10F09C
:1020A0005BEF10F05BEF10F05B50200AD8B4EAEF62
:1020B0000FF01EEF10F04A4A4B2A120000016E5139
:1020C000D8A465EF10F067EF10F0DCEF10F0010E10
:1020D0006E6F6D51D8A46FEF10F071EF10F0DCEF60
:1020E00010F0010E6D6F020E5918D8A47AEF10F09F
:1020F0007CEF10F092EF10F020EE01F04250D92664
:102100004350DA22000EDF6E42C0D9FF43C0DAFF2F
:10211000480EDF6E42C0D9FF43C0DAFF000EDB8EEF
:10212000DCEF10F05904D8A498EF10F09AEF10F0FB
:10213000DCEF10F0000E6F6F20EE01F05250D92648
:102140005350DA22080EDF6E20EE02F05250D926EC
:102150005350DA22200EDE6E040EDD6E52C0D9FF1F
:1021600053C0DAFF040EDF6E52C0D9FF53C0DAFF4E
:10217000000EDB8E010E6F6F20EE01F05050D9265D
:102180005150DA22080EDF6E20EE02F05050D926B0
:102190005150DA22200EDE6E040EDD6E50C0D9FFE3
:1021A00051C0DAFF800EDF6EDCEF10F0DCEF10F0D4
:1021B000DCEF10F0DCEF10F012002D0E556E5CC05D
:1021C0001BF0FD0E1B16D8A4E8EF10F0EAEF10F09C
:1021D0002EEF11F05CC01BF0D8901B323F0E1B1687
:1021E0001B50040D000EF324526E040EF420536EA7
:1021F00052C050F053C051F0040E5018506E515060
:10220000516E52C0D9FF53C0DAFFDF30E8320F0BF6
:102210000D0AD8A40EEF11F010EF11F028EF11F015
:10222000200E016E040E026E20EE02F05250D926EE
:102230005350DA22DECF03F0DDCF04F0000E066E3D
:10224000080E056E78EC13F054EC12F03EEF11F02E
:102250009CEC12F03EEF11F03EEF11F05C50FD0BE4
:10226000040AD8A436EF11F038EF11F03EEF11F068
:102270003FEC0EF03EEF11F03EEF11F0120067EF71
:1022800011F0A0EF11F0DAEC0FF0A0EF11F0DAECA2
:102290000FF0010EECEC14F0A0EF11F0DAEC0FF0FF
:1022A000020EECEC14F0A0EF11F007EC15F0A0EF2B
:1022B00011F0A0EF11F0F7EC08F0A0EF11F0A0EF93
:1022C00011F0A0EF11F0A0EF11F0A0EF11F00DC090
:1022D00013F00EC014F01450000AD8B476EF11F0C9
:1022E0007F0AD8B499EF11F0A0EF11F01350010A52
:1022F000D8B455EF11F0030AD8B4A0EF11F0010AD9
:10230000D8B45BEF11F0060AD8B4A0EF11F0770A49
:10231000D8B4A0EF11F0010AD8B443EF11F0070AC6
:10232000D8B44EEF11F0010AD8B447EF11F0A0EF86
:1023300011F01350FF0AD8B4A0EF11F0A0EF11F084
:102340001200000E00016C6F000E6B6F020E591828
:10235000D8A4ADEF11F0AFEF11F0CFEF11F020EEF8
:1023600001F05050D9265150DA22080EDF6E20EECF
:1023700002F05050D9265150DA22280EDE6E040E9B
:10238000DD6E50C0D9FF51C0DAFF480EDF6E50C07D
:10239000D9FF51C0DAFF000EDB8EFBEF11F0405089
:1023A0000401265D41502759D8B0D9EF11F0DBEF79
:1023B00011F0E1EF11F026C440F027C441F0E1EF45
:1023C00011F00DEC0DF020EE02F04250D9264350F2
:1023D000DA22280EDE6E040EDD6E42C0D9FF43C045
:1023E000DAFF480EDF6E42C0D9FF43C0DAFF000EAD
:1023F000DB8EFBEF11F01200066E000E076E040E6E
:10240000086E0150026E036AD890023603360650F9
:10241000046E056AD89004360536D8900436053621
:102420000250042603500522D89004360536D89071
:1024300004360536045007260550082207C0D9FF88
:1024400008C0DAFFDF9E0150D8A429EF12F02BEF6D
:1024500012F039EF12F00650020D460EF324D96E39
:10246000000EF420DA6E07C0DEFF08C0DDFF47EF84
:1024700012F00650020D420EF324D96E000EF42025
:10248000DA6E07C0DEFF08C0DDFF47EF12F007C0BD
:10249000D9FF08C0DAFFDF9C20EE04F00750D926F0
:1024A0000850DA22DF8C1200000E5A6E000E546EB5
:1024B000000E00016C6F000E6B6F000E6F6F000E50
:1024C000596E42C0D9FF43C0DAFF7F0EDF16040EFB
:1024D0004218426E4350436E42C0D9FF43C0DAFFF8
:1024E0007F0EDF16040E4218426E4350436E50C0FA
:1024F000D9FF51C0DAFF7F0EDF16000E3F6E000ECF
:10250000416E000E406E000E376E000E396E000EEA
:10251000386EA9EC0DF0000E0E6E030E0D6E000E5F
:102520000F6E000E106E000E126E000E116E3FEC5C
:1025300011F0ADEC09F01200020E5918D8A4A3EF67
:1025400012F0A5EF12F0A9EF12F010EC0BF0DAEF99
:1025500012F0000E596E00016F51D8A4B2EF12F0C4
:10256000B4EF12F0D4EF12F020EE01F05050D92663
:102570005150DA22080EDF6E20EE02F05050D926BC
:102580005150DA22200EDE6E040EDD6E50C0D9FFEF
:1025900051C0DAFF0C0EDF6E50C0D9FF51C0DAFF18
:1025A000000EDB8EDAEF12F0000E6F6FDAEF12F032
:1025B000DAEF12F01200000ED1EC14F069EC07F023
:1025C00026EC14F0959E8C9EF0EF12F0F0EF12F0D6
:1025D0008C9EFCEF12F08C8EFCEF12F0FCEF12F0F0
:1025E00005010051000AD8B4E8EF12F0010AD8B48E
:1025F000EBEF12F0FCEF12F0000E296E000E2A6EC7
:10260000050E2B6E400E2C6E010EBFEC0BF029C098
:1026100066F02AC067F0F0EF12F0F0EF12F007EF6B
:1026200000F00600E9CF1DF0EACF1EF0E1CF1FF069
:10263000E2CF20F0D9CF21F0DACF22F0F3CF23F090
:10264000F4CF24F0F6CF25F0F7CF26F0F8CF27F01F
:10265000F5CF28F027EC06F028C0F5FF27C0F8FFDB
:1026600026C0F7FF25C0F6FF24C0F4FF23C0F3FF08
:1026700022C0DAFF21C0D9FF20C0E2FF1FC0E1FF66
:102680001EC0EAFF1DC0E9FF5F92110070A04BEF72
:1026900013F04DEF13F076EF13F052C0D9FF53C093
:1026A000DAFF800EDE18D8A458EF13F05AEF13F0BB
:1026B00075EF13F042C0D9FF43C0DAFF840EDE1875
:1026C000D8A465EF13F067EF13F075EF13F052C065
:1026D000D9FF53C0DAFF0C0EDF6E52C0D9FF53C0D2
:1026E000DAFF000EDB8E75EF13F07090689A12001F
:1026F00003C009F004C00AF001C007F002C008F0EE
:1027000094EF13F009C0D9FF0AC0DAFFDF500B6E57
:10271000094A0A2A07C0D9FF08C0DAFF0BC0DFFF49
:10272000074A082A94EF13F00506D8A006060528E4
:1027300006E10628D8A49FEF13F0A1EF13F082EF73
:1027400013F0A3EF13F012000C6E09A4AAEF13F01C
:10275000ACEF13F0B3EF13F0000E016E0C50FCEC75
:1027600011F0B3EF13F009A2B8EF13F0BAEF13F0C2
:10277000C1EF13F0010E016E0C50FCEC11F0C1EF33
:1027800013F00C50010D700EF3240A6E0F0EF4209E
:102790000B6E0AC0D9FF0BC0DAFF09C0DFFF1200C1
:1027A000016EE3EF13F08C80FAEF13F08C82FAEFF6
:1027B00013F08C84FAEF13F08C86FAEF13F0FAEF33
:1027C00013F0FAEF13F00150000AD8B4FAEF13F047
:1027D000010AD8B4D3EF13F0030AD8B4D6EF13F03C
:1027E000010AD8B4D9EF13F0070AD8B4DCEF13F01C
:1027F000FAEF13F01200016E0EEF14F08C9025EF3B
:1028000014F08C9225EF14F08C9425EF14F08C9634
:1028100025EF14F025EF14F025EF14F00150000A15
:10282000D8B425EF14F0010AD8B4FEEF13F0030A70
:10283000D8B401EF14F0010AD8B404EF14F0070A79
:10284000D8B407EF14F025EF14F012005B50D8A4B1
:102850002CEF14F02EEF14F04EEF14F0000E6D6E0E
:10286000000E696E160E6F6E9F0E6B6E7B0E696E9C
:10287000D08EA28AA08AF28E3FEF14F06D866DA6EC
:1028800044EF14F046EF14F03EEF14F048EF14F06C
:10289000010E5B6E4EEF14F04EEF14F01200000EBE
:1028A000576E000E0E6E740E0D6E000E0F6E000E43
:1028B000106E000E126E000E116E3FEC11F06D9254
:1028C000699466EF14F0689466EF14F068B46BEFE7
:1028D00014F06DEF14F063EF14F06FEF14F0000ECE
:1028E00000016A6F120029C02FF02AC030F083EF78
:1028F00014F02FC0D9FF30C0DAFF2BC0DFFF2F4A02
:10290000302A83EF14F02D06D8A02E062D2806E1DC
:102910002E28D8A48EEF14F090EF14F079EF14F075
:1029200092EF14F0120001C007F002C008F0A3EF0C
:1029300014F007C0D9FF08C0DAFF03C0DFFF074A61
:10294000082AA3EF14F00506D8A00606052806E11C
:102950000628D8A4AEEF14F0B0EF14F099EF14F0FD
:10296000B2EF14F01200010E00016027000E612387
:10297000622363235750D8A4C0EF14F0C2EF14F0C1
:10298000D0EF14F06A2B6A51D8A4C9EF14F0CBEF42
:1029900014F0D0EF14F06A69D0EF14F0D0EF14F017
:1029A0001200296EDCEF14F0EBEF14F0EBEF14F0F3
:1029B000EBEF14F0EBEF14F02950000AD8B4EBEF72
:1029C00014F0010AD8B4EBEF14F0030AD8B4EBEF1B
:1029D00014F0EBEF14F01200016EF7EF14F006EFB5
:1029E00015F006EF15F006EF15F006EF15F00150A3
:1029F000000AD8B406EF15F0010AD8B406EF15F0B6
:102A0000030AD8B406EF15F006EF15F01200000E19
:102A10000001646F000E656F1E0E096E010EA4ECBE
:102A200013F0000E016E000E026E050E036E400ED6
:102A3000046E010E66EC0CF001C066F002C067F097
:102A40001200698468986D82010E576E000E0001B5
:102A50006A6F000E0E6E750E0D6E000E0F6E000E7C
:102A6000106E000E126E000E116E3FEC11F012008F
:102A700000EE60F0120EEE6AE806FDE100EE34F0C2
:102A80002B0EEE6AE806FDE15F905F92000EF86E95
:062A90000001DBEF12F073
:020000040020DA
:08000000FFFFFFFFFFFFFFFF00
:020000040030CA
:0E000000240E3F1EFF8181FF0FC00FE00F4056
:00000001FF
