:04000000CBEF05F04D
:10080000002A2A2A2A2A2A4144432A2A2A2A2A2A28
:100810002A002020202042792057454C53202020B8
:0F0820002000564F4C54414A452045533A0000A2
:100830009390BCEC05F099EC05F0010E926E000E61
:100840001C6E000E1B6E000E1E6E000E1D6EABECBD
:1008500005F0010E1B6E080E1C6E66EC05F0030E13
:10086000206E8A0E1F6E560EE82EFED71F2EFCD766
:10087000202EFAD7000E1C6E010E1B6E000E1E6E8F
:10088000000E1D6EABEC05F0120E1B6E080E1C6EFA
:1008900066EC05F00D0E206EAF0E1F6EB60EE82E44
:1008A000FED71F2EFCD7202EFAD700D0010E2AEC3F
:1008B00005F0000E1C6E000E1B6E000E1E6E000E6C
:1008C0001D6EABEC05F0220E1B6E080E1C6E66EC66
:1008D00005F0030E206E8A0E1F6E560EE82EFED710
:1008E0001F2EFCD7202EFAD7000E80EC05F01AC080
:1008F00018F01BC019F0195006E1C80E185CD8B0EA
:1009000002D08180D6D7F40E185C010E1958D8B0E9
:10091000D0D78190CED71E6EF00E8316F00E9516AE
:10092000959C959A95988C9C8C9A8C98E5EC05F002
:10093000300E2AEC05F000D000D000F0300E2AEC8A
:1009400005F000D000D000F0320E2AEC05F049ECA2
:1009500005F00009D8A4FBD749EC05F00009D8A49C
:10096000FBD71E502AEC05F049EC05F00009D8A48D
:10097000FBD7080E2AEC05F049EC05F00009D8A4D5
:10098000FBD70F0E2AEC05F049EC05F00009D8A4BE
:10099000FBD7010E2AEC05F049EC05F00009D8A4BC
:1009A000FBD7040E2AEC05F049EC05F00009D8A4A9
:1009B000FBD7800EDDEC04F012001D6EF00E9516D4
:1009C000F00E83161D501A6E1B6A1A8E040E1C6ED2
:1009D0001B341B321A321C2EFBD71A500F0B8312FA
:1009E0008C9C8C9AD8EC05F08C88D8EC05F08C980F
:1009F000F00E83161D500F0B8312D8EC05F08C8877
:100A0000D8EC05F08C980F0E951212001A6E49EC76
:100A100005F00009D8A4FBD7F00E9516F00E83164A
:100A20001A380F0B0F0B83128C8A8C9CD8EC05F0B4
:100A30008C88D8EC05F08C98F00E83161A500F0BAA
:100A40008312D8EC05F08C88D8EC05F08C980F0E4A
:100A5000951212001A6EF00E9516F00E83161A38C3
:100A60000F0B0F0B83128C9C8C9AD8EC05F08C88A2
:100A7000D8EC05F08C98F00E83161A500F0B8312E9
:100A8000D8EC05F08C88D8EC05F08C980F0E9512F8
:100A900012008C8C8C9AD8EC05F08C88D8EC05F080
:100AA00083A60AD08C98D8EC05F08C88D8EC05F099
:100AB0008C988C9C010E12008C98D8EC05F08C88D8
:100AC000D8EC05F08C988C9C000E12000FD049ECED
:100AD00005F00009D8A4FBD71BC0F6FF1CC0F7FF28
:100AE0000800F55006EC05F01B4A1C2A1BC0F6FF57
:100AF0001CC0F7FF0800F5500009D8B41200E7D772
:100B00001C6E0D0E1C6405D0000E1B6E000E1A6EBE
:100B10001200000EC26E1C44E846FC0BC26EC2807E
:100B2000C282C2B2FED7C290C3CF1AF0C4CF1BF0AC
:100B30001200C190C192C194C196CF0EC116000E91
:100B4000C26EC050C70B1809C06EC050F80B050923
:100B5000C06EC08E12001CBE0AD01C5003E11B04E4
:100B6000D8A005D01D50C00F2AEC05F012001D5072
:100B7000800F2AEC05F01200280E8BEC04F049ECF3
:100B800005F00009D8A4FBD7060E2AEC05F00C0EE0
:100B90002AEC05F0120000EE01F0190EEE6AE806EC
:100BA000FDE1000EF86E080EF76E000118EF04F07C
:100BB00000F000F000F000F000F000F000F000F0B5
:100BC00000F000F000F000F01200620E1A6E660EE7
:0A0BD000E82EFED71A2EFCD7120003
:020000040020DA
:08000000FFFFFFFFFFFFFFFF00
:020000040030CA
:0E000000000C191EFF8381FF0FC00FE00F40A0
:00000001FF
