:04000000AEEF3FF030
:107F5C00056A046A0001B3EF3FF083808382260E2A
:107F6C00CB6E010EBE6E94929494030ECA6E0C0EE0
:107F7C00BD6E000ECC6ECA8483B01BD0010E0424DF
:107F8C00046E000E0520056ECB50016E026A045083
:107F9C00015C0250800A036E0550800A0358D8B069
:107FAC0006D0FF0ECB24046E056AFF0E052204C01A
:107FBC00BEFF83B213D0FF0E0424046EFF0E052007
:107FCC00056E05BE05D0055007E10404D8B004D0F9
:107FDC00000E056E010E046E04C0BEFF020E026E92
:107FEC00450E016EAA0EE82EFED7012EFCD7022EEE
:047FFC00FAD7C2D717
:020000040020DA
:08000000FFFFFFFFFFFFFFFF00
:020000040030CA
:0E000000000C181EFF8381FF0FC00FE00F40A1
:00000001FF
