:04000000F0EF3EF0EF
:047DCC00AE501200A3
:107DD1004150414741444F016E01C0ADFF1200D1F6
:107DE1000EF66E7D0EF76E000EF86E00EE1DF010B1
:107DF100EE07F00900F5CFEEFFE550E150FAE100A2
:107E0100013BEF3FF0949C948E0FC005F010C0062B
:107E1100F011C007F012C008F0000E016E2D0E0225
:107E21006E310E036E010E046E9AEC3FF001C01329
:107E3100F002C014F003C015F004C016F013C00125
:107E4100F014C002F015C003F016C004F0400E0596
:107E51006E000E066E000E076E000E086E9AEC3F65
:107E6100F00104AF6EAC94AC98AB8EAC9CAC8AAB19
:107E71009CAB881200800E0F6E250E106E000E1145
:107E81006E000E126E03EC3FF095909592959495CD
:107E910096959EE6EC3EF0196E310E1918D8A4475E
:107EA100D08C8EE6EC3EF01C6E770E1C18D8A40424
:107EB100D08C808C928C9406D0650E1C18D8A404AA
:107EC100D08C9007D08C96EDD76C0E1C18D8A404DA
:107ED100D08C808C928C84F6D7730E1C18D8A4E1B8
:107EE100D78C908C928C948C96000E1B6E000E1A7F
:107EF1006E16D01D0E1A24D96E000E1B20DA6EDF0D
:107F010050ECEC3EF0030E186E8A0E176E560EE81A
:107F11002EFED7172EFCD7182EFAD71A4A1B2A1B6A
:107F2100BEE8D71B5004E1080E1A5CD8A0E2D78C3A
:107F31009EB0D7000E0A6E08AE0AD0081E071E06B4
:107F41001E056C000E062207220822010E0A6E048D
:107F5100AE0AD0041E031E021E016C000E02220393
:107F6100220422010E0A1A000E0B6E000E0C6E0086
:107F71000E0D6E000E0E6E0550061007100810D87B
:107F8100B42AD0010E096E06D0D890053606360700
:107F9100360836092A08AEF8D7D8900B360C360DBC
:107FA100360E360550015C0650025807500358083A
:107FB100500458D8A009D00550015E0650025A0756
:107FC10050035A0850045A0B80D8900832073206E1
:107FD100320532092EE1D70A50D8B408D00E1E0D51
:107FE1001E0C1E0B6C000E0C220D220E220BC0016A
:0F7FF100F00CC002F00DC003F00EC004F012003F
:020000040020DA
:08000000FFFFFFFFFFFFFFFF00
:020000040030CA
:0E000000000C181EFF8381FF0FC00FE00F40A1
:00000001FF
