:020000040000FA
:04000000B0EF3FF02E
:107F5C00C95012000001B3EF3FF0310E016E040E58
:107F6C00D9EC3FF0030E046E8A0E036E560EE82E0B
:107F7C00FED7032EFCD7042EFAD7000E956E000EFA
:107F8C008C6EAEEC3FF0056E0504D8A402D00F0E3B
:107F9C00F7D7060E0518D8A402D0050EF1D7052880
:107FAC00D8B4EDD7EED7026E0F0EC16E93809382CC
:107FBC00928A949EC6500218F00B0218C66E310EAF
:107FCC000118D8A402D0C68805D0320E0118D8A446
:107FDC0003D0C698C78C0CD0330E0118D8A402D08D
:107FEC00C68805D0340E0118D8A402D0C698C79CF8
:047FFC00C68A12001F
:020000040020DA
:08000000FFFFFFFFFFFFFFFF00
:020000040030CA
:0E000000000C181EFF8381FF0FC00FE00F40A1
:00000001FF
