:020000040000FA
:04000000A2EF3FF03C
:107F44000001D1EF3FF0C580C5B0ABEF3FF0ADEF1E
:107F54003FF0A6EF3FF01200C584C5B4B4EF3FF084
:107F6400B6EF3FF0AFEF3FF01200016E9E9601C0F6
:107F7400C9FF9EA6C0EF3FF0C2EF3FF0BBEF3FF05A
:107F8400120093829380C78EC79CC68AC650F00B9A
:107F94000809C66E000EC56E310EC86E1200C3EC21
:107FA4003FF0000E056E000E046EA5EC3FF0400E8F
:107FB400B7EC3FF00450B7EC3FF0AEEC3FF0070EE7
:107FC400036E580E026E5A0EE82EFED7022EFCD710
:107FD400032EFAD7044A052A05BEFAEF3FF00550EE
:107FE40009E1100E045CD8A0FAEF3FF0FCEF3FF07B
:0C7FF400D7EF3FF0D3EF3FF000EF00F0BC
:020000040020DA
:08000000FFFFFFFFFFFFFFFF00
:020000040030CA
:0E000000000C181EFF8180FF0FC00FE00F40A4
:00000001FF
