:040000004FEF3FF08F
:107E9A00AE501200000152EF3FF0000E956E800EB8
:107EAA000F6E250E106E000E116E000E126E62EC31
:107EBA003FF04DEC3FF0836EFCD7949C948E0FC03C
:107ECA0005F010C006F011C007F012C008F0000E4D
:107EDA00016E2D0E026E310E036E010E046E9AECC7
:107EEA003FF001C013F002C014F003C015F004C043
:107EFA0016F013C001F014C002F015C003F016C04A
:107F0A0004F0400E056E000E066E000E076E000E9F
:107F1A00086E9AEC3FF00104AF6EAC94AC98AB8E4D
:107F2A00AC9CAC8AAB9CAB881200000E0A6E08AE01
:107F3A000AD0081E071E061E056C000E062207221E
:107F4A000822010E0A6E04AE0AD0041E031E021E87
:107F5A00016C000E022203220422010E0A1A000EEC
:107F6A000B6E000E0C6E000E0D6E000E0E6E05509E
:107F7A00061007100810D8B42AD0010E096E06D0D0
:107F8A00D8900536063607360836092A08AEF8D7D5
:107F9A00D8900B360C360D360E360550015C06505D
:107FAA0002580750035808500458D8A009D0055061
:107FBA00015E0650025A0750035A0850045A0B80B1
:107FCA00D8900832073206320532092EE1D70A5014
:107FDA00D8B408D00E1E0D1E0C1E0B6C000E0C22FF
:107FEA000D220E220BC001F00CC002F00DC003F0EE
:067FFA000EC004F01200AD
:020000040020DA
:08000000FFFFFFFFFFFFFFFF00
:020000040030CA
:0E000000000C181EFF8381FF0FC00FE00F40A1
:00000001FF
