:020000040000FA
:0400000021EF05F0F7
:1008000000486F6C61203A4420006E6F203A6320EC
:100810000000000E0A6E08BE12EF04F010EF04F0A4
:100820001CEF04F0081E071E061E056C000E0622B3
:1008300007220822010E0A6E04BE23EF04F021EF06
:1008400004F02DEF04F0041E031E021E016C000EC6
:10085000022203220422010E0A1A000E0B6E000E61
:100860000C6E000E0D6E000E0E6E05500610071079
:100870000810D8B43EEF04F040EF04F076EF04F037
:10088000010E096E4AEF04F0D89005360636073699
:100890000836092A08AE4FEF04F051EF04F044EF98
:1008A00004F0D8900B360C360D360E360550015C30
:1008B000065002580750035808500458D8A063EF58
:1008C00004F065EF04F06EEF04F00550015E065091
:1008D000025A0750035A0850045A0B80D890083225
:1008E000073206320532092E51EF04F00A50D8B40F
:1008F0007CEF04F07EEF04F086EF04F00E1E0D1E78
:100900000C1E0B6C000E0C220D220E220BC001F0EF
:100910000CC002F00DC003F00EC004F01200949C55
:10092000948E0FC005F010C006F011C007F012C081
:1009300008F0000E016E2D0E026E310E036E010ED8
:10094000046E09EC04F001C013F002C014F003C0FF
:1009500015F004C016F013C001F014C002F015C069
:1009600003F016C004F0400E056E000E066E000E79
:10097000076E000E086E09EC04F00104AF6EAC9433
:10098000AC98AB8EAC9CAC8AAB9CAB881200800E52
:100990000F6E250E106E000E116E000E126E8FEC93
:1009A00004F028EC05F0196E770E1918D8A4DBEFC7
:1009B00004F0DDEF04F0E5EF04F0010E026E080E26
:1009C000036EFBEC04F0EBEF04F00A0E026E080E6F
:1009D000036EFBEC04F00D0E186EAF0E176EB60E24
:1009E000E82EFED7172EFCD7182EFAD700D0D1EF5D
:1009F00004F000EF00F007EF05F002C0F6FF03C0BF
:100A0000F7FF0800F55016EC05F0024A032A02C071
:100A1000F6FF03C0F7FF0800F5500009D8A413EF54
:100A200005F015EF05F0FDEF04F01200016EACA229
:100A30001CEF05F01EEF05F017EF05F001C0ADFF4C
:100A40001200000EF86E080EF76E0001C7EF04F0FA
:040A5000AE50120092
:020000040020DA
:08000000FFFFFFFFFFFFFFFF00
:020000040030CA
:0E000000000C181EFF8381FF0FC00FE00F40A1
:00000001FF
