:04000000C6EF3FF018
:107F8C000001DDEF3FF0C180C182C184C186000ECB
:107F9C008C6E000E896E000E8A6E000E8B6E000EBB
:107FAC008D6E959292929392949296921200C9EC45
:107FBC003FF083828082818282828482030E026EF1
:107FCC008A0E016E560EE82EFED7012EFCD7022E1D
:107FDC00FAD783928092819282928492030E026EDF
:107FEC008A0E016E560EE82EFED7012EFCD7022EFD
:047FFC00FAD7DFD7FA
:020000040020DA
:08000000FFFFFFFFFFFFFFFF00
:020000040030CA
:0E000000040E181EFF8381FF0FC00FE00F409B
:00000001FF
