:020000040000FA
:040000007FEF3FF05F
:107EFE000001B2EF3FF0016E01C0C9FF1200036E28
:107F0E000F0EC16E93809392929A949EC650031850
:107F1E00F00B0318C66E310E0118D8A402D0C68815
:107F2E0005D0320E0118D8A403D0C698C78C0CD039
:107F3E00330E0118D8A402D0C68805D0340E01180D
:107F4E00D8A402D0C698C79C02B002D0C79E01D05A
:107F5E00C78EC68A1200310E016E000E026E020E20
:107F6E0086EC3FF0030E056E8A0E046E560EE82E5A
:107F7E00FED7042EFCD7052EFAD7899A010E82EC75
:107F8E003FF00D0E056EAF0E046EB60EE82EFED748
:107F9E00042EFCD7052EFAD700D0060E82EC3FF049
:107FAE000D0E056EAF0E046EB60EE82EFED7042E25
:107FBE00FCD7052EFAD700D0FF0E82EC3FF00D0E47
:107FCE00056EAF0E046EB60EE82EFED7042EFCD74D
:107FDE00052EFAD700D0898A1A0E056E5E0E046E33
:107FEE006E0EE82EFED7042EFCD7052EFAD700D043
:027FFE00C4D7E6
:020000040020DA
:08000000FFFFFFFFFFFFFFFF00
:020000040030CA
:0E000000000C181EFF8381FF0FC00FE00F40A1
:00000001FF
