:020000040000FA
:0400000007EF00F016
:10000800028209ED00F045EF00F00600F2A41ED0D0
:1000180083A80DD08C820D0E016EFC0EE82EFED743
:10002800012EFCD78C920D0ED66ED40E0DD08C827C
:10003800070E016E7D0EE82EFED7012EFCD700F0CC
:100048008C929C0ED66ED10ED76EF294029211004D
:10005800F29ED59AD596D550F80B0209D56ED59C47
:10006800F294F28AF28CF28ED58E1200F00E956E12
:10007800000E8C6E2B0ED66ECF0ED76E2CEC00F0C9
:0C008800FFD70290029200013AEF00F056
:020000040020DA
:08000000FFFFFFFFFFFFFFFF00
:020000040030CA
:0E000000000C1F1EFF8385FF0FC00FE00F4096
:00000001FF
